{
  "contractName": "AppleToken",
  "abi": [
    {
      "inputs": [],
      "stateMutability": "nonpayable",
      "type": "constructor"
    },
    {
      "anonymous": false,
      "inputs": [
        {
          "indexed": true,
          "internalType": "address",
          "name": "owner",
          "type": "address"
        },
        {
          "indexed": true,
          "internalType": "address",
          "name": "spender",
          "type": "address"
        },
        {
          "indexed": false,
          "internalType": "uint256",
          "name": "value",
          "type": "uint256"
        }
      ],
      "name": "Approval",
      "type": "event"
    },
    {
      "anonymous": false,
      "inputs": [
        {
          "indexed": true,
          "internalType": "address",
          "name": "from",
          "type": "address"
        },
        {
          "indexed": true,
          "internalType": "address",
          "name": "to",
          "type": "address"
        },
        {
          "indexed": false,
          "internalType": "uint256",
          "name": "value",
          "type": "uint256"
        }
      ],
      "name": "Transfer",
      "type": "event"
    },
    {
      "inputs": [
        {
          "internalType": "address",
          "name": "owner",
          "type": "address"
        },
        {
          "internalType": "address",
          "name": "spender",
          "type": "address"
        }
      ],
      "name": "allowance",
      "outputs": [
        {
          "internalType": "uint256",
          "name": "",
          "type": "uint256"
        }
      ],
      "stateMutability": "view",
      "type": "function",
      "constant": true
    },
    {
      "inputs": [
        {
          "internalType": "address",
          "name": "spender",
          "type": "address"
        },
        {
          "internalType": "uint256",
          "name": "amount",
          "type": "uint256"
        }
      ],
      "name": "approve",
      "outputs": [
        {
          "internalType": "bool",
          "name": "",
          "type": "bool"
        }
      ],
      "stateMutability": "nonpayable",
      "type": "function"
    },
    {
      "inputs": [
        {
          "internalType": "address",
          "name": "account",
          "type": "address"
        }
      ],
      "name": "balanceOf",
      "outputs": [
        {
          "internalType": "uint256",
          "name": "",
          "type": "uint256"
        }
      ],
      "stateMutability": "view",
      "type": "function",
      "constant": true
    },
    {
      "inputs": [],
      "name": "decimals",
      "outputs": [
        {
          "internalType": "uint8",
          "name": "",
          "type": "uint8"
        }
      ],
      "stateMutability": "view",
      "type": "function",
      "constant": true
    },
    {
      "inputs": [
        {
          "internalType": "address",
          "name": "spender",
          "type": "address"
        },
        {
          "internalType": "uint256",
          "name": "subtractedValue",
          "type": "uint256"
        }
      ],
      "name": "decreaseAllowance",
      "outputs": [
        {
          "internalType": "bool",
          "name": "",
          "type": "bool"
        }
      ],
      "stateMutability": "nonpayable",
      "type": "function"
    },
    {
      "inputs": [
        {
          "internalType": "address",
          "name": "spender",
          "type": "address"
        },
        {
          "internalType": "uint256",
          "name": "addedValue",
          "type": "uint256"
        }
      ],
      "name": "increaseAllowance",
      "outputs": [
        {
          "internalType": "bool",
          "name": "",
          "type": "bool"
        }
      ],
      "stateMutability": "nonpayable",
      "type": "function"
    },
    {
      "inputs": [],
      "name": "name",
      "outputs": [
        {
          "internalType": "string",
          "name": "",
          "type": "string"
        }
      ],
      "stateMutability": "view",
      "type": "function",
      "constant": true
    },
    {
      "inputs": [],
      "name": "symbol",
      "outputs": [
        {
          "internalType": "string",
          "name": "",
          "type": "string"
        }
      ],
      "stateMutability": "view",
      "type": "function",
      "constant": true
    },
    {
      "inputs": [],
      "name": "totalSupply",
      "outputs": [
        {
          "internalType": "uint256",
          "name": "",
          "type": "uint256"
        }
      ],
      "stateMutability": "view",
      "type": "function",
      "constant": true
    },
    {
      "inputs": [
        {
          "internalType": "address",
          "name": "to",
          "type": "address"
        },
        {
          "internalType": "uint256",
          "name": "amount",
          "type": "uint256"
        }
      ],
      "name": "transfer",
      "outputs": [
        {
          "internalType": "bool",
          "name": "",
          "type": "bool"
        }
      ],
      "stateMutability": "nonpayable",
      "type": "function"
    },
    {
      "inputs": [
        {
          "internalType": "address",
          "name": "from",
          "type": "address"
        },
        {
          "internalType": "address",
          "name": "to",
          "type": "address"
        },
        {
          "internalType": "uint256",
          "name": "amount",
          "type": "uint256"
        }
      ],
      "name": "transferFrom",
      "outputs": [
        {
          "internalType": "bool",
          "name": "",
          "type": "bool"
        }
      ],
      "stateMutability": "nonpayable",
      "type": "function"
    },
    {
      "inputs": [
        {
          "internalType": "address",
          "name": "account",
          "type": "address"
        },
        {
          "internalType": "uint256",
          "name": "amount",
          "type": "uint256"
        }
      ],
      "name": "Mint",
      "outputs": [],
      "stateMutability": "nonpayable",
      "type": "function"
    },
    {
      "inputs": [],
      "name": "getSender",
      "outputs": [
        {
          "internalType": "address",
          "name": "",
          "type": "address"
        }
      ],
      "stateMutability": "view",
      "type": "function",
      "constant": true
    },
    {
      "inputs": [],
      "name": "getPrice",
      "outputs": [
        {
          "internalType": "uint256",
          "name": "",
          "type": "uint256"
        }
      ],
      "stateMutability": "view",
      "type": "function",
      "constant": true
    },
    {
      "inputs": [
        {
          "internalType": "address",
          "name": "account",
          "type": "address"
        }
      ],
      "name": "getBalance",
      "outputs": [
        {
          "internalType": "uint256",
          "name": "",
          "type": "uint256"
        }
      ],
      "stateMutability": "view",
      "type": "function",
      "constant": true
    },
    {
      "inputs": [
        {
          "internalType": "address payable",
          "name": "account",
          "type": "address"
        },
        {
          "internalType": "uint256",
          "name": "tokens",
          "type": "uint256"
        }
      ],
      "name": "TransferToken",
      "outputs": [],
      "stateMutability": "payable",
      "type": "function",
      "payable": true
    }
  ],
  "bytecode": "0x60806040526702c68af0bb1400006007553480156200001d57600080fd5b506040518060400160405280600581526020017f4170706c650000000000000000000000000000000000000000000000000000008152506040518060400160405280600381526020017f41504c00000000000000000000000000000000000000000000000000000000008152508160039080519060200190620000a2929190620002bd565b508060049080519060200190620000bb929190620002bd565b50505033600660006101000a81548173ffffffffffffffffffffffffffffffffffffffff021916908373ffffffffffffffffffffffffffffffffffffffff16021790555062000134600660009054906101000a900473ffffffffffffffffffffffffffffffffffffffff1660646200013a60201b60201c565b62000519565b600073ffffffffffffffffffffffffffffffffffffffff168273ffffffffffffffffffffffffffffffffffffffff161415620001ad576040517f08c379a0000000000000000000000000000000000000000000000000000000008152600401620001a490620003ce565b60405180910390fd5b620001c160008383620002b360201b60201c565b8060026000828254620001d5919062000429565b92505081905550806000808473ffffffffffffffffffffffffffffffffffffffff1673ffffffffffffffffffffffffffffffffffffffff16815260200190815260200160002060008282546200022c919062000429565b925050819055508173ffffffffffffffffffffffffffffffffffffffff16600073ffffffffffffffffffffffffffffffffffffffff167fddf252ad1be2c89b69c2b068fc378daa952ba7f163c4a11628f55a4df523b3ef8360405162000293919062000497565b60405180910390a3620002af60008383620002b860201b60201c565b5050565b505050565b505050565b828054620002cb90620004e3565b90600052602060002090601f016020900481019282620002ef57600085556200033b565b82601f106200030a57805160ff19168380011785556200033b565b828001600101855582156200033b579182015b828111156200033a5782518255916020019190600101906200031d565b5b5090506200034a91906200034e565b5090565b5b80821115620003695760008160009055506001016200034f565b5090565b600082825260208201905092915050565b7f45524332303a206d696e7420746f20746865207a65726f206164647265737300600082015250565b6000620003b6601f836200036d565b9150620003c3826200037e565b602082019050919050565b60006020820190508181036000830152620003e981620003a7565b9050919050565b6000819050919050565b7f4e487b7100000000000000000000000000000000000000000000000000000000600052601160045260246000fd5b60006200043682620003f0565b91506200044383620003f0565b9250827fffffffffffffffffffffffffffffffffffffffffffffffffffffffffffffffff038211156200047b576200047a620003fa565b5b828201905092915050565b6200049181620003f0565b82525050565b6000602082019050620004ae600083018462000486565b92915050565b7f4e487b7100000000000000000000000000000000000000000000000000000000600052602260045260246000fd5b60006002820490506001821680620004fc57607f821691505b60208210811415620005135762000512620004b4565b5b50919050565b61196e80620005296000396000f3fe6080604052600436106100f35760003560e01c806370a082311161008a578063a457c2d711610059578063a457c2d714610333578063a9059cbb14610370578063dd62ed3e146103ad578063f8b2cb4f146103ea576100f3565b806370a082311461028457806395d89b41146102c157806398d5fdca146102ec5780639dd3045b14610317576100f3565b806323b872dd116100c657806323b872dd146101b4578063313ce567146101f1578063395093511461021c5780635e01eb5a14610259576100f3565b806306fdde03146100f8578063095ea7b3146101235780630f6798a51461016057806318160ddd14610189575b600080fd5b34801561010457600080fd5b5061010d610427565b60405161011a91906110ba565b60405180910390f35b34801561012f57600080fd5b5061014a60048036038101906101459190611175565b6104b9565b60405161015791906111d0565b60405180910390f35b34801561016c57600080fd5b5061018760048036038101906101829190611175565b6104dc565b005b34801561019557600080fd5b5061019e6104ea565b6040516101ab91906111fa565b60405180910390f35b3480156101c057600080fd5b506101db60048036038101906101d69190611215565b6104f4565b6040516101e891906111d0565b60405180910390f35b3480156101fd57600080fd5b50610206610523565b6040516102139190611284565b60405180910390f35b34801561022857600080fd5b50610243600480360381019061023e9190611175565b61052c565b60405161025091906111d0565b60405180910390f35b34801561026557600080fd5b5061026e6105d6565b60405161027b91906112ae565b60405180910390f35b34801561029057600080fd5b506102ab60048036038101906102a691906112c9565b610600565b6040516102b891906111fa565b60405180910390f35b3480156102cd57600080fd5b506102d6610648565b6040516102e391906110ba565b60405180910390f35b3480156102f857600080fd5b506103016106da565b60405161030e91906111fa565b60405180910390f35b610331600480360381019061032c9190611334565b6106e4565b005b34801561033f57600080fd5b5061035a60048036038101906103559190611175565b6107fa565b60405161036791906111d0565b60405180910390f35b34801561037c57600080fd5b5061039760048036038101906103929190611175565b6108e4565b6040516103a491906111d0565b60405180910390f35b3480156103b957600080fd5b506103d460048036038101906103cf9190611374565b610907565b6040516103e191906111fa565b60405180910390f35b3480156103f657600080fd5b50610411600480360381019061040c91906112c9565b61098e565b60405161041e91906111fa565b60405180910390f35b606060038054610436906113e3565b80601f0160208091040260200160405190810160405280929190818152602001828054610462906113e3565b80156104af5780601f10610484576101008083540402835291602001916104af565b820191906000526020600020905b81548152906001019060200180831161049257829003601f168201915b5050505050905090565b6000806104c46109d7565b90506104d18185856109df565b600191505092915050565b6104e68282610baa565b5050565b6000600254905090565b6000806104ff6109d7565b905061050c858285610d0a565b610517858585610d96565b60019150509392505050565b60006012905090565b6000806105376109d7565b90506105cb818585600160008673ffffffffffffffffffffffffffffffffffffffff1673ffffffffffffffffffffffffffffffffffffffff16815260200190815260200160002060008973ffffffffffffffffffffffffffffffffffffffff1673ffffffffffffffffffffffffffffffffffffffff168152602001908152602001600020546105c69190611444565b6109df565b600191505092915050565b6000600660009054906101000a900473ffffffffffffffffffffffffffffffffffffffff16905090565b60008060008373ffffffffffffffffffffffffffffffffffffffff1673ffffffffffffffffffffffffffffffffffffffff168152602001908152602001600020549050919050565b606060048054610657906113e3565b80601f0160208091040260200160405190810160405280929190818152602001828054610683906113e3565b80156106d05780601f106106a5576101008083540402835291602001916106d0565b820191906000526020600020905b8154815290600101906020018083116106b357829003601f168201915b5050505050905090565b6000600754905090565b600073ffffffffffffffffffffffffffffffffffffffff168273ffffffffffffffffffffffffffffffffffffffff161415801561074e5750600073ffffffffffffffffffffffffffffffffffffffff163373ffffffffffffffffffffffffffffffffffffffff1614155b61075757600080fd5b60075481610765919061149a565b3373ffffffffffffffffffffffffffffffffffffffff1631101561078857600080fd5b610793823383610d96565b600754816107a1919061149a565b600560003373ffffffffffffffffffffffffffffffffffffffff1673ffffffffffffffffffffffffffffffffffffffff16815260200190815260200160002060008282546107ef9190611444565b925050819055505050565b6000806108056109d7565b90506000600160008373ffffffffffffffffffffffffffffffffffffffff1673ffffffffffffffffffffffffffffffffffffffff16815260200190815260200160002060008673ffffffffffffffffffffffffffffffffffffffff1673ffffffffffffffffffffffffffffffffffffffff168152602001908152602001600020549050838110156108cb576040517f08c379a00000000000000000000000000000000000000000000000000000000081526004016108c290611566565b60405180910390fd5b6108d882868684036109df565b60019250505092915050565b6000806108ef6109d7565b90506108fc818585610d96565b600191505092915050565b6000600160008473ffffffffffffffffffffffffffffffffffffffff1673ffffffffffffffffffffffffffffffffffffffff16815260200190815260200160002060008373ffffffffffffffffffffffffffffffffffffffff1673ffffffffffffffffffffffffffffffffffffffff16815260200190815260200160002054905092915050565b6000600560008373ffffffffffffffffffffffffffffffffffffffff1673ffffffffffffffffffffffffffffffffffffffff168152602001908152602001600020549050919050565b600033905090565b600073ffffffffffffffffffffffffffffffffffffffff168373ffffffffffffffffffffffffffffffffffffffff161415610a4f576040517f08c379a0000000000000000000000000000000000000000000000000000000008152600401610a46906115f8565b60405180910390fd5b600073ffffffffffffffffffffffffffffffffffffffff168273ffffffffffffffffffffffffffffffffffffffff161415610abf576040517f08c379a0000000000000000000000000000000000000000000000000000000008152600401610ab69061168a565b60405180910390fd5b80600160008573ffffffffffffffffffffffffffffffffffffffff1673ffffffffffffffffffffffffffffffffffffffff16815260200190815260200160002060008473ffffffffffffffffffffffffffffffffffffffff1673ffffffffffffffffffffffffffffffffffffffff168152602001908152602001600020819055508173ffffffffffffffffffffffffffffffffffffffff168373ffffffffffffffffffffffffffffffffffffffff167f8c5be1e5ebec7d5bd14f71427d1e84f3dd0314c0f7b2291e5b200ac8c7c3b92583604051610b9d91906111fa565b60405180910390a3505050565b600073ffffffffffffffffffffffffffffffffffffffff168273ffffffffffffffffffffffffffffffffffffffff161415610c1a576040517f08c379a0000000000000000000000000000000000000000000000000000000008152600401610c11906116f6565b60405180910390fd5b610c2660008383611017565b8060026000828254610c389190611444565b92505081905550806000808473ffffffffffffffffffffffffffffffffffffffff1673ffffffffffffffffffffffffffffffffffffffff1681526020019081526020016000206000828254610c8d9190611444565b925050819055508173ffffffffffffffffffffffffffffffffffffffff16600073ffffffffffffffffffffffffffffffffffffffff167fddf252ad1be2c89b69c2b068fc378daa952ba7f163c4a11628f55a4df523b3ef83604051610cf291906111fa565b60405180910390a3610d066000838361101c565b5050565b6000610d168484610907565b90507fffffffffffffffffffffffffffffffffffffffffffffffffffffffffffffffff8114610d905781811015610d82576040517f08c379a0000000000000000000000000000000000000000000000000000000008152600401610d7990611762565b60405180910390fd5b610d8f84848484036109df565b5b50505050565b600073ffffffffffffffffffffffffffffffffffffffff168373ffffffffffffffffffffffffffffffffffffffff161415610e06576040517f08c379a0000000000000000000000000000000000000000000000000000000008152600401610dfd906117f4565b60405180910390fd5b600073ffffffffffffffffffffffffffffffffffffffff168273ffffffffffffffffffffffffffffffffffffffff161415610e76576040517f08c379a0000000000000000000000000000000000000000000000000000000008152600401610e6d90611886565b60405180910390fd5b610e81838383611017565b60008060008573ffffffffffffffffffffffffffffffffffffffff1673ffffffffffffffffffffffffffffffffffffffff16815260200190815260200160002054905081811015610f07576040517f08c379a0000000000000000000000000000000000000000000000000000000008152600401610efe90611918565b60405180910390fd5b8181036000808673ffffffffffffffffffffffffffffffffffffffff1673ffffffffffffffffffffffffffffffffffffffff16815260200190815260200160002081905550816000808573ffffffffffffffffffffffffffffffffffffffff1673ffffffffffffffffffffffffffffffffffffffff1681526020019081526020016000206000828254610f9a9190611444565b925050819055508273ffffffffffffffffffffffffffffffffffffffff168473ffffffffffffffffffffffffffffffffffffffff167fddf252ad1be2c89b69c2b068fc378daa952ba7f163c4a11628f55a4df523b3ef84604051610ffe91906111fa565b60405180910390a361101184848461101c565b50505050565b505050565b505050565b600081519050919050565b600082825260208201905092915050565b60005b8381101561105b578082015181840152602081019050611040565b8381111561106a576000848401525b50505050565b6000601f19601f8301169050919050565b600061108c82611021565b611096818561102c565b93506110a681856020860161103d565b6110af81611070565b840191505092915050565b600060208201905081810360008301526110d48184611081565b905092915050565b600080fd5b600073ffffffffffffffffffffffffffffffffffffffff82169050919050565b600061110c826110e1565b9050919050565b61111c81611101565b811461112757600080fd5b50565b60008135905061113981611113565b92915050565b6000819050919050565b6111528161113f565b811461115d57600080fd5b50565b60008135905061116f81611149565b92915050565b6000806040838503121561118c5761118b6110dc565b5b600061119a8582860161112a565b92505060206111ab85828601611160565b9150509250929050565b60008115159050919050565b6111ca816111b5565b82525050565b60006020820190506111e560008301846111c1565b92915050565b6111f48161113f565b82525050565b600060208201905061120f60008301846111eb565b92915050565b60008060006060848603121561122e5761122d6110dc565b5b600061123c8682870161112a565b935050602061124d8682870161112a565b925050604061125e86828701611160565b9150509250925092565b600060ff82169050919050565b61127e81611268565b82525050565b60006020820190506112996000830184611275565b92915050565b6112a881611101565b82525050565b60006020820190506112c3600083018461129f565b92915050565b6000602082840312156112df576112de6110dc565b5b60006112ed8482850161112a565b91505092915050565b6000611301826110e1565b9050919050565b611311816112f6565b811461131c57600080fd5b50565b60008135905061132e81611308565b92915050565b6000806040838503121561134b5761134a6110dc565b5b60006113598582860161131f565b925050602061136a85828601611160565b9150509250929050565b6000806040838503121561138b5761138a6110dc565b5b60006113998582860161112a565b92505060206113aa8582860161112a565b9150509250929050565b7f4e487b7100000000000000000000000000000000000000000000000000000000600052602260045260246000fd5b600060028204905060018216806113fb57607f821691505b6020821081141561140f5761140e6113b4565b5b50919050565b7f4e487b7100000000000000000000000000000000000000000000000000000000600052601160045260246000fd5b600061144f8261113f565b915061145a8361113f565b9250827fffffffffffffffffffffffffffffffffffffffffffffffffffffffffffffffff0382111561148f5761148e611415565b5b828201905092915050565b60006114a58261113f565b91506114b08361113f565b9250817fffffffffffffffffffffffffffffffffffffffffffffffffffffffffffffffff04831182151516156114e9576114e8611415565b5b828202905092915050565b7f45524332303a2064656372656173656420616c6c6f77616e63652062656c6f7760008201527f207a65726f000000000000000000000000000000000000000000000000000000602082015250565b600061155060258361102c565b915061155b826114f4565b604082019050919050565b6000602082019050818103600083015261157f81611543565b9050919050565b7f45524332303a20617070726f76652066726f6d20746865207a65726f2061646460008201527f7265737300000000000000000000000000000000000000000000000000000000602082015250565b60006115e260248361102c565b91506115ed82611586565b604082019050919050565b60006020820190508181036000830152611611816115d5565b9050919050565b7f45524332303a20617070726f766520746f20746865207a65726f20616464726560008201527f7373000000000000000000000000000000000000000000000000000000000000602082015250565b600061167460228361102c565b915061167f82611618565b604082019050919050565b600060208201905081810360008301526116a381611667565b9050919050565b7f45524332303a206d696e7420746f20746865207a65726f206164647265737300600082015250565b60006116e0601f8361102c565b91506116eb826116aa565b602082019050919050565b6000602082019050818103600083015261170f816116d3565b9050919050565b7f45524332303a20696e73756666696369656e7420616c6c6f77616e6365000000600082015250565b600061174c601d8361102c565b915061175782611716565b602082019050919050565b6000602082019050818103600083015261177b8161173f565b9050919050565b7f45524332303a207472616e736665722066726f6d20746865207a65726f20616460008201527f6472657373000000000000000000000000000000000000000000000000000000602082015250565b60006117de60258361102c565b91506117e982611782565b604082019050919050565b6000602082019050818103600083015261180d816117d1565b9050919050565b7f45524332303a207472616e7366657220746f20746865207a65726f206164647260008201527f6573730000000000000000000000000000000000000000000000000000000000602082015250565b600061187060238361102c565b915061187b82611814565b604082019050919050565b6000602082019050818103600083015261189f81611863565b9050919050565b7f45524332303a207472616e7366657220616d6f756e742065786365656473206260008201527f616c616e63650000000000000000000000000000000000000000000000000000602082015250565b600061190260268361102c565b915061190d826118a6565b604082019050919050565b60006020820190508181036000830152611931816118f5565b905091905056fea2646970667358221220c691d98db69ea87184eb28b5a89251c0e66c33a1998394fb33366d65b7346d1d64736f6c634300080c0033",
  "immutableReferences": {},
  "source": "// SPDX-License-Identifier: MIT\npragma solidity ^0.8.12;\n\nimport \"@openzeppelin/contracts/token/ERC20/ERC20.sol\";\n\ncontract AppleToken is ERC20 {\n    mapping(address => uint256) eth_balance;\n    address private sender;\n    uint256 private price = 0.2 ether;\n\n    constructor() ERC20(\"Apple\", \"APL\") {\n        sender = msg.sender;\n        _mint(sender, 100);\n    }\n\n    function Mint(address account, uint256 amount) public {\n        _mint(account, amount);\n    }\n\n    function getSender() public view returns (address) {\n        return sender;\n    }\n\n    function getPrice() public view returns (uint256) {\n        return price;\n    }\n\n    function getBalance(address account) public view returns (uint256) {\n        return eth_balance[account];\n    }\n\n    function TransferToken(address payable account, uint256 tokens)\n        public\n        payable\n    {\n        require(account != address(0) && msg.sender != address(0));\n        require(msg.sender.balance >= tokens * price);\n        _transfer(account, msg.sender, tokens);\n        eth_balance[msg.sender] += tokens * price;\n    }\n}\n",
  "sourcePath": "/home/david//Projects/Test/solidity/contracts/AppleToken.sol",
  "compiler": {
    "name": "solc",
    "version": "0.8.12+commit.f00d7308.Emscripten.clang"
  },
  "schemaVersion": "3.4.6",
  "updatedAt": "2022-03-14T16:57:12.771Z",
  "networkType": "ethereum",
  "devdoc": {
    "kind": "dev",
    "methods": {
      "allowance(address,address)": {
        "details": "See {IERC20-allowance}."
      },
      "approve(address,uint256)": {
        "details": "See {IERC20-approve}. NOTE: If `amount` is the maximum `uint256`, the allowance is not updated on `transferFrom`. This is semantically equivalent to an infinite approval. Requirements: - `spender` cannot be the zero address."
      },
      "balanceOf(address)": {
        "details": "See {IERC20-balanceOf}."
      },
      "decimals()": {
        "details": "Returns the number of decimals used to get its user representation. For example, if `decimals` equals `2`, a balance of `505` tokens should be displayed to a user as `5.05` (`505 / 10 ** 2`). Tokens usually opt for a value of 18, imitating the relationship between Ether and Wei. This is the value {ERC20} uses, unless this function is overridden; NOTE: This information is only used for _display_ purposes: it in no way affects any of the arithmetic of the contract, including {IERC20-balanceOf} and {IERC20-transfer}."
      },
      "decreaseAllowance(address,uint256)": {
        "details": "Atomically decreases the allowance granted to `spender` by the caller. This is an alternative to {approve} that can be used as a mitigation for problems described in {IERC20-approve}. Emits an {Approval} event indicating the updated allowance. Requirements: - `spender` cannot be the zero address. - `spender` must have allowance for the caller of at least `subtractedValue`."
      },
      "increaseAllowance(address,uint256)": {
        "details": "Atomically increases the allowance granted to `spender` by the caller. This is an alternative to {approve} that can be used as a mitigation for problems described in {IERC20-approve}. Emits an {Approval} event indicating the updated allowance. Requirements: - `spender` cannot be the zero address."
      },
      "name()": {
        "details": "Returns the name of the token."
      },
      "symbol()": {
        "details": "Returns the symbol of the token, usually a shorter version of the name."
      },
      "totalSupply()": {
        "details": "See {IERC20-totalSupply}."
      },
      "transfer(address,uint256)": {
        "details": "See {IERC20-transfer}. Requirements: - `to` cannot be the zero address. - the caller must have a balance of at least `amount`."
      },
      "transferFrom(address,address,uint256)": {
        "details": "See {IERC20-transferFrom}. Emits an {Approval} event indicating the updated allowance. This is not required by the EIP. See the note at the beginning of {ERC20}. NOTE: Does not update the allowance if the current allowance is the maximum `uint256`. Requirements: - `from` and `to` cannot be the zero address. - `from` must have a balance of at least `amount`. - the caller must have allowance for ``from``'s tokens of at least `amount`."
      }
    },
    "version": 1
  },
  "userdoc": {
    "kind": "user",
    "methods": {},
    "version": 1
  }
}