{
  "contractName": "AppleToken",
  "abi": [
    {
      "inputs": [],
      "stateMutability": "nonpayable",
      "type": "constructor"
    },
    {
      "anonymous": false,
      "inputs": [
        {
          "indexed": true,
          "internalType": "address",
          "name": "owner",
          "type": "address"
        },
        {
          "indexed": true,
          "internalType": "address",
          "name": "spender",
          "type": "address"
        },
        {
          "indexed": false,
          "internalType": "uint256",
          "name": "value",
          "type": "uint256"
        }
      ],
      "name": "Approval",
      "type": "event"
    },
    {
      "anonymous": false,
      "inputs": [
        {
          "indexed": true,
          "internalType": "address",
          "name": "from",
          "type": "address"
        },
        {
          "indexed": true,
          "internalType": "address",
          "name": "to",
          "type": "address"
        },
        {
          "indexed": false,
          "internalType": "uint256",
          "name": "value",
          "type": "uint256"
        }
      ],
      "name": "Transfer",
      "type": "event"
    },
    {
      "inputs": [
        {
          "internalType": "address",
          "name": "owner",
          "type": "address"
        },
        {
          "internalType": "address",
          "name": "spender",
          "type": "address"
        }
      ],
      "name": "allowance",
      "outputs": [
        {
          "internalType": "uint256",
          "name": "",
          "type": "uint256"
        }
      ],
      "stateMutability": "view",
      "type": "function",
      "constant": true
    },
    {
      "inputs": [
        {
          "internalType": "address",
          "name": "spender",
          "type": "address"
        },
        {
          "internalType": "uint256",
          "name": "amount",
          "type": "uint256"
        }
      ],
      "name": "approve",
      "outputs": [
        {
          "internalType": "bool",
          "name": "",
          "type": "bool"
        }
      ],
      "stateMutability": "nonpayable",
      "type": "function"
    },
    {
      "inputs": [
        {
          "internalType": "address",
          "name": "account",
          "type": "address"
        }
      ],
      "name": "balanceOf",
      "outputs": [
        {
          "internalType": "uint256",
          "name": "",
          "type": "uint256"
        }
      ],
      "stateMutability": "view",
      "type": "function",
      "constant": true
    },
    {
      "inputs": [],
      "name": "decimals",
      "outputs": [
        {
          "internalType": "uint8",
          "name": "",
          "type": "uint8"
        }
      ],
      "stateMutability": "view",
      "type": "function",
      "constant": true
    },
    {
      "inputs": [
        {
          "internalType": "address",
          "name": "spender",
          "type": "address"
        },
        {
          "internalType": "uint256",
          "name": "subtractedValue",
          "type": "uint256"
        }
      ],
      "name": "decreaseAllowance",
      "outputs": [
        {
          "internalType": "bool",
          "name": "",
          "type": "bool"
        }
      ],
      "stateMutability": "nonpayable",
      "type": "function"
    },
    {
      "inputs": [
        {
          "internalType": "address",
          "name": "spender",
          "type": "address"
        },
        {
          "internalType": "uint256",
          "name": "addedValue",
          "type": "uint256"
        }
      ],
      "name": "increaseAllowance",
      "outputs": [
        {
          "internalType": "bool",
          "name": "",
          "type": "bool"
        }
      ],
      "stateMutability": "nonpayable",
      "type": "function"
    },
    {
      "inputs": [],
      "name": "name",
      "outputs": [
        {
          "internalType": "string",
          "name": "",
          "type": "string"
        }
      ],
      "stateMutability": "view",
      "type": "function",
      "constant": true
    },
    {
      "inputs": [
        {
          "internalType": "uint256",
          "name": "",
          "type": "uint256"
        }
      ],
      "name": "offers",
      "outputs": [
        {
          "internalType": "uint256",
          "name": "uid",
          "type": "uint256"
        },
        {
          "internalType": "address",
          "name": "sender",
          "type": "address"
        },
        {
          "internalType": "uint256",
          "name": "price",
          "type": "uint256"
        },
        {
          "internalType": "uint256",
          "name": "amount",
          "type": "uint256"
        },
        {
          "internalType": "bool",
          "name": "is_sold",
          "type": "bool"
        }
      ],
      "stateMutability": "view",
      "type": "function",
      "constant": true
    },
    {
      "inputs": [],
      "name": "symbol",
      "outputs": [
        {
          "internalType": "string",
          "name": "",
          "type": "string"
        }
      ],
      "stateMutability": "view",
      "type": "function",
      "constant": true
    },
    {
      "inputs": [],
      "name": "totalSupply",
      "outputs": [
        {
          "internalType": "uint256",
          "name": "",
          "type": "uint256"
        }
      ],
      "stateMutability": "view",
      "type": "function",
      "constant": true
    },
    {
      "inputs": [
        {
          "internalType": "address",
          "name": "to",
          "type": "address"
        },
        {
          "internalType": "uint256",
          "name": "amount",
          "type": "uint256"
        }
      ],
      "name": "transfer",
      "outputs": [
        {
          "internalType": "bool",
          "name": "",
          "type": "bool"
        }
      ],
      "stateMutability": "nonpayable",
      "type": "function"
    },
    {
      "inputs": [
        {
          "internalType": "address",
          "name": "from",
          "type": "address"
        },
        {
          "internalType": "address",
          "name": "to",
          "type": "address"
        },
        {
          "internalType": "uint256",
          "name": "amount",
          "type": "uint256"
        }
      ],
      "name": "transferFrom",
      "outputs": [
        {
          "internalType": "bool",
          "name": "",
          "type": "bool"
        }
      ],
      "stateMutability": "nonpayable",
      "type": "function"
    },
    {
      "inputs": [
        {
          "internalType": "uint256",
          "name": "amount",
          "type": "uint256"
        }
      ],
      "name": "Mint",
      "outputs": [],
      "stateMutability": "nonpayable",
      "type": "function"
    },
    {
      "inputs": [
        {
          "internalType": "uint256",
          "name": "price",
          "type": "uint256"
        },
        {
          "internalType": "uint256",
          "name": "amount",
          "type": "uint256"
        }
      ],
      "name": "sale",
      "outputs": [],
      "stateMutability": "nonpayable",
      "type": "function"
    },
    {
      "inputs": [
        {
          "internalType": "uint256",
          "name": "uid",
          "type": "uint256"
        }
      ],
      "name": "buy",
      "outputs": [],
      "stateMutability": "payable",
      "type": "function",
      "payable": true
    }
  ],
  "bytecode": "0x60806040523480156200001157600080fd5b506040518060400160405280600581526020017f4170706c650000000000000000000000000000000000000000000000000000008152506040518060400160405280600381526020017f41504c0000000000000000000000000000000000000000000000000000000000815250816003908051906020019062000096929190620000b8565b508060049080519060200190620000af929190620000b8565b505050620001cd565b828054620000c69062000197565b90600052602060002090601f016020900481019282620000ea576000855562000136565b82601f106200010557805160ff191683800117855562000136565b8280016001018555821562000136579182015b828111156200013557825182559160200191906001019062000118565b5b50905062000145919062000149565b5090565b5b80821115620001645760008160009055506001016200014a565b5090565b7f4e487b7100000000000000000000000000000000000000000000000000000000600052602260045260246000fd5b60006002820490506001821680620001b057607f821691505b60208210811415620001c757620001c662000168565b5b50919050565b611a9b80620001dd6000396000f3fe6080604052600436106100e85760003560e01c8063395093511161008a578063a457c2d711610059578063a457c2d714610320578063a9059cbb1461035d578063d96a094a1461039a578063dd62ed3e146103b6576100e8565b8063395093511461023a57806370a08231146102775780638a72ea6a146102b457806395d89b41146102f5576100e8565b806318160ddd116100c657806318160ddd1461017e5780631c35f962146101a957806323b872dd146101d2578063313ce5671461020f576100e8565b806306fdde03146100ed5780630788370314610118578063095ea7b314610141575b600080fd5b3480156100f957600080fd5b506101026103f3565b60405161010f91906111eb565b60405180910390f35b34801561012457600080fd5b5061013f600480360381019061013a9190611248565b610485565b005b34801561014d57600080fd5b50610168600480360381019061016391906112d3565b610492565b604051610175919061132e565b60405180910390f35b34801561018a57600080fd5b506101936104b5565b6040516101a09190611358565b60405180910390f35b3480156101b557600080fd5b506101d060048036038101906101cb9190611373565b6104bf565b005b3480156101de57600080fd5b506101f960048036038101906101f491906113b3565b6105d2565b604051610206919061132e565b60405180910390f35b34801561021b57600080fd5b50610224610601565b6040516102319190611422565b60405180910390f35b34801561024657600080fd5b50610261600480360381019061025c91906112d3565b61060a565b60405161026e919061132e565b60405180910390f35b34801561028357600080fd5b5061029e6004803603810190610299919061143d565b6106b4565b6040516102ab9190611358565b60405180910390f35b3480156102c057600080fd5b506102db60048036038101906102d69190611248565b6106fc565b6040516102ec959493929190611479565b60405180910390f35b34801561030157600080fd5b5061030a61076f565b60405161031791906111eb565b60405180910390f35b34801561032c57600080fd5b50610347600480360381019061034291906112d3565b610801565b604051610354919061132e565b60405180910390f35b34801561036957600080fd5b50610384600480360381019061037f91906112d3565b6108eb565b604051610391919061132e565b60405180910390f35b6103b460048036038101906103af9190611248565b61090e565b005b3480156103c257600080fd5b506103dd60048036038101906103d891906114cc565b610a81565b6040516103ea9190611358565b60405180910390f35b6060600380546104029061153b565b80601f016020809104026020016040519081016040528092919081815260200182805461042e9061153b565b801561047b5780601f106104505761010080835404028352916020019161047b565b820191906000526020600020905b81548152906001019060200180831161045e57829003601f168201915b5050505050905090565b61048f3382610b08565b50565b60008061049d610c68565b90506104aa818585610c70565b600191505092915050565b6000600254905090565b80806104cb3330610a81565b10156104d657600080fd5b60056040518060a0016040528060058054905081526020013373ffffffffffffffffffffffffffffffffffffffff1681526020018581526020018481526020016000151581525090806001815401808255809150506001900390600052602060002090600502016000909190919091506000820151816000015560208201518160010160006101000a81548173ffffffffffffffffffffffffffffffffffffffff021916908373ffffffffffffffffffffffffffffffffffffffff160217905550604082015181600201556060820151816003015560808201518160040160006101000a81548160ff0219169083151502179055505050505050565b6000806105dd610c68565b90506105ea858285610e3b565b6105f5858585610ec7565b60019150509392505050565b60006012905090565b600080610615610c68565b90506106a9818585600160008673ffffffffffffffffffffffffffffffffffffffff1673ffffffffffffffffffffffffffffffffffffffff16815260200190815260200160002060008973ffffffffffffffffffffffffffffffffffffffff1673ffffffffffffffffffffffffffffffffffffffff168152602001908152602001600020546106a4919061159c565b610c70565b600191505092915050565b60008060008373ffffffffffffffffffffffffffffffffffffffff1673ffffffffffffffffffffffffffffffffffffffff168152602001908152602001600020549050919050565b6005818154811061070c57600080fd5b90600052602060002090600502016000915090508060000154908060010160009054906101000a900473ffffffffffffffffffffffffffffffffffffffff16908060020154908060030154908060040160009054906101000a900460ff16905085565b60606004805461077e9061153b565b80601f01602080910402602001604051908101604052809291908181526020018280546107aa9061153b565b80156107f75780601f106107cc576101008083540402835291602001916107f7565b820191906000526020600020905b8154815290600101906020018083116107da57829003601f168201915b5050505050905090565b60008061080c610c68565b90506000600160008373ffffffffffffffffffffffffffffffffffffffff1673ffffffffffffffffffffffffffffffffffffffff16815260200190815260200160002060008673ffffffffffffffffffffffffffffffffffffffff1673ffffffffffffffffffffffffffffffffffffffff168152602001908152602001600020549050838110156108d2576040517f08c379a00000000000000000000000000000000000000000000000000000000081526004016108c990611664565b60405180910390fd5b6108df8286868403610c70565b60019250505092915050565b6000806108f6610c68565b9050610903818585610ec7565b600191505092915050565b6005818154811061092257610921611684565b5b906000526020600020906005020160040160009054906101000a900460ff161561094b57600080fd5b6005818154811061095f5761095e611684565b5b90600052602060002090600502016002015434101561097d57600080fd5b6109f26005828154811061099457610993611684565b5b906000526020600020906005020160010160009054906101000a900473ffffffffffffffffffffffffffffffffffffffff1633600584815481106109db576109da611684565b5b906000526020600020906005020160030154610ec7565b60058181548110610a0657610a05611684565b5b906000526020600020906005020160010160009054906101000a900473ffffffffffffffffffffffffffffffffffffffff1673ffffffffffffffffffffffffffffffffffffffff166108fc349081150290604051600060405180830381858888f19350505050158015610a7d573d6000803e3d6000fd5b5050565b6000600160008473ffffffffffffffffffffffffffffffffffffffff1673ffffffffffffffffffffffffffffffffffffffff16815260200190815260200160002060008373ffffffffffffffffffffffffffffffffffffffff1673ffffffffffffffffffffffffffffffffffffffff16815260200190815260200160002054905092915050565b600073ffffffffffffffffffffffffffffffffffffffff168273ffffffffffffffffffffffffffffffffffffffff161415610b78576040517f08c379a0000000000000000000000000000000000000000000000000000000008152600401610b6f906116ff565b60405180910390fd5b610b8460008383611148565b8060026000828254610b96919061159c565b92505081905550806000808473ffffffffffffffffffffffffffffffffffffffff1673ffffffffffffffffffffffffffffffffffffffff1681526020019081526020016000206000828254610beb919061159c565b925050819055508173ffffffffffffffffffffffffffffffffffffffff16600073ffffffffffffffffffffffffffffffffffffffff167fddf252ad1be2c89b69c2b068fc378daa952ba7f163c4a11628f55a4df523b3ef83604051610c509190611358565b60405180910390a3610c646000838361114d565b5050565b600033905090565b600073ffffffffffffffffffffffffffffffffffffffff168373ffffffffffffffffffffffffffffffffffffffff161415610ce0576040517f08c379a0000000000000000000000000000000000000000000000000000000008152600401610cd790611791565b60405180910390fd5b600073ffffffffffffffffffffffffffffffffffffffff168273ffffffffffffffffffffffffffffffffffffffff161415610d50576040517f08c379a0000000000000000000000000000000000000000000000000000000008152600401610d4790611823565b60405180910390fd5b80600160008573ffffffffffffffffffffffffffffffffffffffff1673ffffffffffffffffffffffffffffffffffffffff16815260200190815260200160002060008473ffffffffffffffffffffffffffffffffffffffff1673ffffffffffffffffffffffffffffffffffffffff168152602001908152602001600020819055508173ffffffffffffffffffffffffffffffffffffffff168373ffffffffffffffffffffffffffffffffffffffff167f8c5be1e5ebec7d5bd14f71427d1e84f3dd0314c0f7b2291e5b200ac8c7c3b92583604051610e2e9190611358565b60405180910390a3505050565b6000610e478484610a81565b90507fffffffffffffffffffffffffffffffffffffffffffffffffffffffffffffffff8114610ec15781811015610eb3576040517f08c379a0000000000000000000000000000000000000000000000000000000008152600401610eaa9061188f565b60405180910390fd5b610ec08484848403610c70565b5b50505050565b600073ffffffffffffffffffffffffffffffffffffffff168373ffffffffffffffffffffffffffffffffffffffff161415610f37576040517f08c379a0000000000000000000000000000000000000000000000000000000008152600401610f2e90611921565b60405180910390fd5b600073ffffffffffffffffffffffffffffffffffffffff168273ffffffffffffffffffffffffffffffffffffffff161415610fa7576040517f08c379a0000000000000000000000000000000000000000000000000000000008152600401610f9e906119b3565b60405180910390fd5b610fb2838383611148565b60008060008573ffffffffffffffffffffffffffffffffffffffff1673ffffffffffffffffffffffffffffffffffffffff16815260200190815260200160002054905081811015611038576040517f08c379a000000000000000000000000000000000000000000000000000000000815260040161102f90611a45565b60405180910390fd5b8181036000808673ffffffffffffffffffffffffffffffffffffffff1673ffffffffffffffffffffffffffffffffffffffff16815260200190815260200160002081905550816000808573ffffffffffffffffffffffffffffffffffffffff1673ffffffffffffffffffffffffffffffffffffffff16815260200190815260200160002060008282546110cb919061159c565b925050819055508273ffffffffffffffffffffffffffffffffffffffff168473ffffffffffffffffffffffffffffffffffffffff167fddf252ad1be2c89b69c2b068fc378daa952ba7f163c4a11628f55a4df523b3ef8460405161112f9190611358565b60405180910390a361114284848461114d565b50505050565b505050565b505050565b600081519050919050565b600082825260208201905092915050565b60005b8381101561118c578082015181840152602081019050611171565b8381111561119b576000848401525b50505050565b6000601f19601f8301169050919050565b60006111bd82611152565b6111c7818561115d565b93506111d781856020860161116e565b6111e0816111a1565b840191505092915050565b6000602082019050818103600083015261120581846111b2565b905092915050565b600080fd5b6000819050919050565b61122581611212565b811461123057600080fd5b50565b6000813590506112428161121c565b92915050565b60006020828403121561125e5761125d61120d565b5b600061126c84828501611233565b91505092915050565b600073ffffffffffffffffffffffffffffffffffffffff82169050919050565b60006112a082611275565b9050919050565b6112b081611295565b81146112bb57600080fd5b50565b6000813590506112cd816112a7565b92915050565b600080604083850312156112ea576112e961120d565b5b60006112f8858286016112be565b925050602061130985828601611233565b9150509250929050565b60008115159050919050565b61132881611313565b82525050565b6000602082019050611343600083018461131f565b92915050565b61135281611212565b82525050565b600060208201905061136d6000830184611349565b92915050565b6000806040838503121561138a5761138961120d565b5b600061139885828601611233565b92505060206113a985828601611233565b9150509250929050565b6000806000606084860312156113cc576113cb61120d565b5b60006113da868287016112be565b93505060206113eb868287016112be565b92505060406113fc86828701611233565b9150509250925092565b600060ff82169050919050565b61141c81611406565b82525050565b60006020820190506114376000830184611413565b92915050565b6000602082840312156114535761145261120d565b5b6000611461848285016112be565b91505092915050565b61147381611295565b82525050565b600060a08201905061148e6000830188611349565b61149b602083018761146a565b6114a86040830186611349565b6114b56060830185611349565b6114c2608083018461131f565b9695505050505050565b600080604083850312156114e3576114e261120d565b5b60006114f1858286016112be565b9250506020611502858286016112be565b9150509250929050565b7f4e487b7100000000000000000000000000000000000000000000000000000000600052602260045260246000fd5b6000600282049050600182168061155357607f821691505b602082108114156115675761156661150c565b5b50919050565b7f4e487b7100000000000000000000000000000000000000000000000000000000600052601160045260246000fd5b60006115a782611212565b91506115b283611212565b9250827fffffffffffffffffffffffffffffffffffffffffffffffffffffffffffffffff038211156115e7576115e661156d565b5b828201905092915050565b7f45524332303a2064656372656173656420616c6c6f77616e63652062656c6f7760008201527f207a65726f000000000000000000000000000000000000000000000000000000602082015250565b600061164e60258361115d565b9150611659826115f2565b604082019050919050565b6000602082019050818103600083015261167d81611641565b9050919050565b7f4e487b7100000000000000000000000000000000000000000000000000000000600052603260045260246000fd5b7f45524332303a206d696e7420746f20746865207a65726f206164647265737300600082015250565b60006116e9601f8361115d565b91506116f4826116b3565b602082019050919050565b60006020820190508181036000830152611718816116dc565b9050919050565b7f45524332303a20617070726f76652066726f6d20746865207a65726f2061646460008201527f7265737300000000000000000000000000000000000000000000000000000000602082015250565b600061177b60248361115d565b91506117868261171f565b604082019050919050565b600060208201905081810360008301526117aa8161176e565b9050919050565b7f45524332303a20617070726f766520746f20746865207a65726f20616464726560008201527f7373000000000000000000000000000000000000000000000000000000000000602082015250565b600061180d60228361115d565b9150611818826117b1565b604082019050919050565b6000602082019050818103600083015261183c81611800565b9050919050565b7f45524332303a20696e73756666696369656e7420616c6c6f77616e6365000000600082015250565b6000611879601d8361115d565b915061188482611843565b602082019050919050565b600060208201905081810360008301526118a88161186c565b9050919050565b7f45524332303a207472616e736665722066726f6d20746865207a65726f20616460008201527f6472657373000000000000000000000000000000000000000000000000000000602082015250565b600061190b60258361115d565b9150611916826118af565b604082019050919050565b6000602082019050818103600083015261193a816118fe565b9050919050565b7f45524332303a207472616e7366657220746f20746865207a65726f206164647260008201527f6573730000000000000000000000000000000000000000000000000000000000602082015250565b600061199d60238361115d565b91506119a882611941565b604082019050919050565b600060208201905081810360008301526119cc81611990565b9050919050565b7f45524332303a207472616e7366657220616d6f756e742065786365656473206260008201527f616c616e63650000000000000000000000000000000000000000000000000000602082015250565b6000611a2f60268361115d565b9150611a3a826119d3565b604082019050919050565b60006020820190508181036000830152611a5e81611a22565b905091905056fea26469706673582212208b7b751853f4f5ab4451c1414620632673a184101208bc54ff855d30b49df4e464736f6c634300080c0033",
  "immutableReferences": {},
  "source": "// SPDX-License-Identifier: MIT\npragma solidity ^0.8.12;\n\nimport \"@openzeppelin/contracts/token/ERC20/ERC20.sol\";\n\ncontract AppleToken is ERC20 {\n    struct Offer {\n        uint256 uid;\n        address sender;\n        uint256 price;\n        uint256 amount;\n        bool is_sold;\n    }\n\n    Offer[] public offers;\n\n    constructor() ERC20(\"Apple\", \"APL\") {}\n\n    function Mint(uint256 amount) public {\n        _mint(msg.sender, amount);\n    }\n\n    modifier validateAllowance(uint256 amount) {\n        require(allowance(msg.sender, address(this)) >= amount);\n        _;\n    }\n\n    function sale(uint256 price, uint256 amount)\n        public\n        validateAllowance(amount)\n    {\n        offers.push(Offer(offers.length, msg.sender, price, amount, false));\n    }\n\n    function buy(uint256 uid) public payable {\n        require(!offers[uid].is_sold);\n        require(msg.value >= offers[uid].price);\n        _transfer(offers[uid].sender, msg.sender, offers[uid].amount);\n        payable(offers[uid].sender).transfer(msg.value);\n    }\n}\n",
  "sourcePath": "/home/david//Projects/Test/solidity/contracts/AppleToken.sol",
  "compiler": {
    "name": "solc",
    "version": "0.8.12+commit.f00d7308.Emscripten.clang"
  },
  "schemaVersion": "3.4.6",
  "updatedAt": "2022-03-16T22:37:06.880Z",
  "networkType": "ethereum",
  "devdoc": {
    "kind": "dev",
    "methods": {
      "allowance(address,address)": {
        "details": "See {IERC20-allowance}."
      },
      "approve(address,uint256)": {
        "details": "See {IERC20-approve}. NOTE: If `amount` is the maximum `uint256`, the allowance is not updated on `transferFrom`. This is semantically equivalent to an infinite approval. Requirements: - `spender` cannot be the zero address."
      },
      "balanceOf(address)": {
        "details": "See {IERC20-balanceOf}."
      },
      "decimals()": {
        "details": "Returns the number of decimals used to get its user representation. For example, if `decimals` equals `2`, a balance of `505` tokens should be displayed to a user as `5.05` (`505 / 10 ** 2`). Tokens usually opt for a value of 18, imitating the relationship between Ether and Wei. This is the value {ERC20} uses, unless this function is overridden; NOTE: This information is only used for _display_ purposes: it in no way affects any of the arithmetic of the contract, including {IERC20-balanceOf} and {IERC20-transfer}."
      },
      "decreaseAllowance(address,uint256)": {
        "details": "Atomically decreases the allowance granted to `spender` by the caller. This is an alternative to {approve} that can be used as a mitigation for problems described in {IERC20-approve}. Emits an {Approval} event indicating the updated allowance. Requirements: - `spender` cannot be the zero address. - `spender` must have allowance for the caller of at least `subtractedValue`."
      },
      "increaseAllowance(address,uint256)": {
        "details": "Atomically increases the allowance granted to `spender` by the caller. This is an alternative to {approve} that can be used as a mitigation for problems described in {IERC20-approve}. Emits an {Approval} event indicating the updated allowance. Requirements: - `spender` cannot be the zero address."
      },
      "name()": {
        "details": "Returns the name of the token."
      },
      "symbol()": {
        "details": "Returns the symbol of the token, usually a shorter version of the name."
      },
      "totalSupply()": {
        "details": "See {IERC20-totalSupply}."
      },
      "transfer(address,uint256)": {
        "details": "See {IERC20-transfer}. Requirements: - `to` cannot be the zero address. - the caller must have a balance of at least `amount`."
      },
      "transferFrom(address,address,uint256)": {
        "details": "See {IERC20-transferFrom}. Emits an {Approval} event indicating the updated allowance. This is not required by the EIP. See the note at the beginning of {ERC20}. NOTE: Does not update the allowance if the current allowance is the maximum `uint256`. Requirements: - `from` and `to` cannot be the zero address. - `from` must have a balance of at least `amount`. - the caller must have allowance for ``from``'s tokens of at least `amount`."
      }
    },
    "version": 1
  },
  "userdoc": {
    "kind": "user",
    "methods": {},
    "version": 1
  }
}