{
  "contractName": "PerlToken",
  "abi": [
    {
      "inputs": [],
      "stateMutability": "nonpayable",
      "type": "constructor"
    },
    {
      "anonymous": false,
      "inputs": [
        {
          "indexed": true,
          "internalType": "address",
          "name": "owner",
          "type": "address"
        },
        {
          "indexed": true,
          "internalType": "address",
          "name": "approved",
          "type": "address"
        },
        {
          "indexed": true,
          "internalType": "uint256",
          "name": "tokenId",
          "type": "uint256"
        }
      ],
      "name": "Approval",
      "type": "event"
    },
    {
      "anonymous": false,
      "inputs": [
        {
          "indexed": true,
          "internalType": "address",
          "name": "owner",
          "type": "address"
        },
        {
          "indexed": true,
          "internalType": "address",
          "name": "operator",
          "type": "address"
        },
        {
          "indexed": false,
          "internalType": "bool",
          "name": "approved",
          "type": "bool"
        }
      ],
      "name": "ApprovalForAll",
      "type": "event"
    },
    {
      "anonymous": false,
      "inputs": [
        {
          "indexed": true,
          "internalType": "address",
          "name": "from",
          "type": "address"
        },
        {
          "indexed": true,
          "internalType": "address",
          "name": "to",
          "type": "address"
        },
        {
          "indexed": true,
          "internalType": "uint256",
          "name": "tokenId",
          "type": "uint256"
        }
      ],
      "name": "Transfer",
      "type": "event"
    },
    {
      "inputs": [
        {
          "internalType": "address",
          "name": "to",
          "type": "address"
        },
        {
          "internalType": "uint256",
          "name": "tokenId",
          "type": "uint256"
        }
      ],
      "name": "approve",
      "outputs": [],
      "stateMutability": "nonpayable",
      "type": "function"
    },
    {
      "inputs": [
        {
          "internalType": "address",
          "name": "owner",
          "type": "address"
        }
      ],
      "name": "balanceOf",
      "outputs": [
        {
          "internalType": "uint256",
          "name": "",
          "type": "uint256"
        }
      ],
      "stateMutability": "view",
      "type": "function",
      "constant": true
    },
    {
      "inputs": [
        {
          "internalType": "uint256",
          "name": "tokenId",
          "type": "uint256"
        }
      ],
      "name": "getApproved",
      "outputs": [
        {
          "internalType": "address",
          "name": "",
          "type": "address"
        }
      ],
      "stateMutability": "view",
      "type": "function",
      "constant": true
    },
    {
      "inputs": [
        {
          "internalType": "address",
          "name": "owner",
          "type": "address"
        },
        {
          "internalType": "address",
          "name": "operator",
          "type": "address"
        }
      ],
      "name": "isApprovedForAll",
      "outputs": [
        {
          "internalType": "bool",
          "name": "",
          "type": "bool"
        }
      ],
      "stateMutability": "view",
      "type": "function",
      "constant": true
    },
    {
      "inputs": [],
      "name": "name",
      "outputs": [
        {
          "internalType": "string",
          "name": "",
          "type": "string"
        }
      ],
      "stateMutability": "view",
      "type": "function",
      "constant": true
    },
    {
      "inputs": [
        {
          "internalType": "uint256",
          "name": "tokenId",
          "type": "uint256"
        }
      ],
      "name": "ownerOf",
      "outputs": [
        {
          "internalType": "address",
          "name": "",
          "type": "address"
        }
      ],
      "stateMutability": "view",
      "type": "function",
      "constant": true
    },
    {
      "inputs": [
        {
          "internalType": "address",
          "name": "from",
          "type": "address"
        },
        {
          "internalType": "address",
          "name": "to",
          "type": "address"
        },
        {
          "internalType": "uint256",
          "name": "tokenId",
          "type": "uint256"
        }
      ],
      "name": "safeTransferFrom",
      "outputs": [],
      "stateMutability": "nonpayable",
      "type": "function"
    },
    {
      "inputs": [
        {
          "internalType": "address",
          "name": "from",
          "type": "address"
        },
        {
          "internalType": "address",
          "name": "to",
          "type": "address"
        },
        {
          "internalType": "uint256",
          "name": "tokenId",
          "type": "uint256"
        },
        {
          "internalType": "bytes",
          "name": "_data",
          "type": "bytes"
        }
      ],
      "name": "safeTransferFrom",
      "outputs": [],
      "stateMutability": "nonpayable",
      "type": "function"
    },
    {
      "inputs": [
        {
          "internalType": "address",
          "name": "operator",
          "type": "address"
        },
        {
          "internalType": "bool",
          "name": "approved",
          "type": "bool"
        }
      ],
      "name": "setApprovalForAll",
      "outputs": [],
      "stateMutability": "nonpayable",
      "type": "function"
    },
    {
      "inputs": [
        {
          "internalType": "bytes4",
          "name": "interfaceId",
          "type": "bytes4"
        }
      ],
      "name": "supportsInterface",
      "outputs": [
        {
          "internalType": "bool",
          "name": "",
          "type": "bool"
        }
      ],
      "stateMutability": "view",
      "type": "function",
      "constant": true
    },
    {
      "inputs": [],
      "name": "symbol",
      "outputs": [
        {
          "internalType": "string",
          "name": "",
          "type": "string"
        }
      ],
      "stateMutability": "view",
      "type": "function",
      "constant": true
    },
    {
      "inputs": [
        {
          "internalType": "address",
          "name": "from",
          "type": "address"
        },
        {
          "internalType": "address",
          "name": "to",
          "type": "address"
        },
        {
          "internalType": "uint256",
          "name": "tokenId",
          "type": "uint256"
        }
      ],
      "name": "transferFrom",
      "outputs": [],
      "stateMutability": "nonpayable",
      "type": "function"
    },
    {
      "inputs": [
        {
          "internalType": "string",
          "name": "url",
          "type": "string"
        }
      ],
      "name": "mint",
      "outputs": [],
      "stateMutability": "nonpayable",
      "type": "function"
    },
    {
      "inputs": [
        {
          "internalType": "uint256",
          "name": "id",
          "type": "uint256"
        }
      ],
      "name": "buy",
      "outputs": [],
      "stateMutability": "payable",
      "type": "function",
      "payable": true
    },
    {
      "inputs": [
        {
          "internalType": "uint256",
          "name": "tokenId",
          "type": "uint256"
        },
        {
          "internalType": "uint256",
          "name": "price",
          "type": "uint256"
        }
      ],
      "name": "offer",
      "outputs": [],
      "stateMutability": "nonpayable",
      "type": "function"
    },
    {
      "inputs": [
        {
          "internalType": "uint256",
          "name": "tokenId",
          "type": "uint256"
        }
      ],
      "name": "tokenURI",
      "outputs": [
        {
          "internalType": "string",
          "name": "",
          "type": "string"
        }
      ],
      "stateMutability": "view",
      "type": "function",
      "constant": true
    },
    {
      "inputs": [],
      "name": "offers",
      "outputs": [
        {
          "components": [
            {
              "internalType": "address",
              "name": "sender",
              "type": "address"
            },
            {
              "internalType": "uint256",
              "name": "id",
              "type": "uint256"
            },
            {
              "internalType": "uint256",
              "name": "price",
              "type": "uint256"
            },
            {
              "internalType": "uint256",
              "name": "tokenId",
              "type": "uint256"
            },
            {
              "internalType": "bool",
              "name": "is_sold",
              "type": "bool"
            }
          ],
          "internalType": "struct PerlToken.Offer[]",
          "name": "",
          "type": "tuple[]"
        }
      ],
      "stateMutability": "nonpayable",
      "type": "function"
    },
    {
      "inputs": [],
      "name": "tokens",
      "outputs": [
        {
          "components": [
            {
              "internalType": "string",
              "name": "url",
              "type": "string"
            },
            {
              "internalType": "address",
              "name": "owner",
              "type": "address"
            }
          ],
          "internalType": "struct PerlToken.Token[]",
          "name": "",
          "type": "tuple[]"
        }
      ],
      "stateMutability": "nonpayable",
      "type": "function"
    }
  ],
  "bytecode": "0x60806040523480156200001157600080fd5b506040518060400160405280600981526020017f5065726c546f6b656e00000000000000000000000000000000000000000000008152506040518060400160405280600381526020017f50524c0000000000000000000000000000000000000000000000000000000000815250816000908051906020019062000096929190620000b8565b508060019080519060200190620000af929190620000b8565b505050620001cd565b828054620000c69062000197565b90600052602060002090601f016020900481019282620000ea576000855562000136565b82601f106200010557805160ff191683800117855562000136565b8280016001018555821562000136579182015b828111156200013557825182559160200191906001019062000118565b5b50905062000145919062000149565b5090565b5b80821115620001645760008160009055506001016200014a565b5090565b7f4e487b7100000000000000000000000000000000000000000000000000000000600052602260045260246000fd5b60006002820490506001821680620001b057607f821691505b60208210811415620001c757620001c662000168565b5b50919050565b61310180620001dd6000396000f3fe6080604052600436106101095760003560e01c806395d89b4111610095578063b88d4fde11610064578063b88d4fde1461037b578063c87b56dd146103a4578063d85d3d27146103e1578063d96a094a1461040a578063e985e9c51461042657610109565b806395d89b41146102d35780639d63848a146102fe578063a192058614610329578063a22cb4651461035257610109565b806323b872dd116100dc57806323b872dd146101dc57806342842e0e146102055780636352211e1461022e57806368d83aa71461026b57806370a082311461029657610109565b806301ffc9a71461010e57806306fdde031461014b578063081812fc14610176578063095ea7b3146101b3575b600080fd5b34801561011a57600080fd5b5061013560048036038101906101309190611dfb565b610463565b6040516101429190611e43565b60405180910390f35b34801561015757600080fd5b50610160610545565b60405161016d9190611ef7565b60405180910390f35b34801561018257600080fd5b5061019d60048036038101906101989190611f4f565b6105d7565b6040516101aa9190611fbd565b60405180910390f35b3480156101bf57600080fd5b506101da60048036038101906101d59190612004565b61065c565b005b3480156101e857600080fd5b5061020360048036038101906101fe9190612044565b610774565b005b34801561021157600080fd5b5061022c60048036038101906102279190612044565b6107d4565b005b34801561023a57600080fd5b5061025560048036038101906102509190611f4f565b6107f4565b6040516102629190611fbd565b60405180910390f35b34801561027757600080fd5b506102806108a6565b60405161028d91906121db565b60405180910390f35b3480156102a257600080fd5b506102bd60048036038101906102b891906121fd565b610994565b6040516102ca9190612239565b60405180910390f35b3480156102df57600080fd5b506102e8610a4c565b6040516102f59190611ef7565b60405180910390f35b34801561030a57600080fd5b50610313610ade565b604051610320919061239d565b60405180910390f35b34801561033557600080fd5b50610350600480360381019061034b91906123bf565b610c25565b005b34801561035e57600080fd5b506103796004803603810190610374919061242b565b610d9a565b005b34801561038757600080fd5b506103a2600480360381019061039d91906125a0565b610db0565b005b3480156103b057600080fd5b506103cb60048036038101906103c69190611f4f565b610e12565b6040516103d89190611ef7565b60405180910390f35b3480156103ed57600080fd5b50610408600480360381019061040391906126c4565b610edb565b005b610424600480360381019061041f9190611f4f565b610fa9565b005b34801561043257600080fd5b5061044d6004803603810190610448919061270d565b611224565b60405161045a9190611e43565b60405180910390f35b60007f80ac58cd000000000000000000000000000000000000000000000000000000007bffffffffffffffffffffffffffffffffffffffffffffffffffffffff1916827bffffffffffffffffffffffffffffffffffffffffffffffffffffffff1916148061052e57507f5b5e139f000000000000000000000000000000000000000000000000000000007bffffffffffffffffffffffffffffffffffffffffffffffffffffffff1916827bffffffffffffffffffffffffffffffffffffffffffffffffffffffff1916145b8061053e575061053d826112b8565b5b9050919050565b6060600080546105549061277c565b80601f01602080910402602001604051908101604052809291908181526020018280546105809061277c565b80156105cd5780601f106105a2576101008083540402835291602001916105cd565b820191906000526020600020905b8154815290600101906020018083116105b057829003601f168201915b5050505050905090565b60006105e282611322565b610621576040517f08c379a000000000000000000000000000000000000000000000000000000000815260040161061890612820565b60405180910390fd5b6004600083815260200190815260200160002060009054906101000a900473ffffffffffffffffffffffffffffffffffffffff169050919050565b6000610667826107f4565b90508073ffffffffffffffffffffffffffffffffffffffff168373ffffffffffffffffffffffffffffffffffffffff1614156106d8576040517f08c379a00000000000000000000000000000000000000000000000000000000081526004016106cf906128b2565b60405180910390fd5b8073ffffffffffffffffffffffffffffffffffffffff166106f761138e565b73ffffffffffffffffffffffffffffffffffffffff16148061072657506107258161072061138e565b611224565b5b610765576040517f08c379a000000000000000000000000000000000000000000000000000000000815260040161075c90612944565b60405180910390fd5b61076f8383611396565b505050565b61078561077f61138e565b8261144f565b6107c4576040517f08c379a00000000000000000000000000000000000000000000000000000000081526004016107bb906129d6565b60405180910390fd5b6107cf83838361152d565b505050565b6107ef83838360405180602001604052806000815250610db0565b505050565b6000806002600084815260200190815260200160002060009054906101000a900473ffffffffffffffffffffffffffffffffffffffff169050600073ffffffffffffffffffffffffffffffffffffffff168173ffffffffffffffffffffffffffffffffffffffff16141561089d576040517f08c379a000000000000000000000000000000000000000000000000000000000815260040161089490612a68565b60405180910390fd5b80915050919050565b60606006805480602002602001604051908101604052809291908181526020016000905b8282101561098b57838290600052602060002090600502016040518060a00160405290816000820160009054906101000a900473ffffffffffffffffffffffffffffffffffffffff1673ffffffffffffffffffffffffffffffffffffffff1673ffffffffffffffffffffffffffffffffffffffff1681526020016001820154815260200160028201548152602001600382015481526020016004820160009054906101000a900460ff161515151581525050815260200190600101906108ca565b50505050905090565b60008073ffffffffffffffffffffffffffffffffffffffff168273ffffffffffffffffffffffffffffffffffffffff161415610a05576040517f08c379a00000000000000000000000000000000000000000000000000000000081526004016109fc90612afa565b60405180910390fd5b600360008373ffffffffffffffffffffffffffffffffffffffff1673ffffffffffffffffffffffffffffffffffffffff168152602001908152602001600020549050919050565b606060018054610a5b9061277c565b80601f0160208091040260200160405190810160405280929190818152602001828054610a879061277c565b8015610ad45780601f10610aa957610100808354040283529160200191610ad4565b820191906000526020600020905b815481529060010190602001808311610ab757829003601f168201915b5050505050905090565b60606007805480602002602001604051908101604052809291908181526020016000905b82821015610c1c5783829060005260206000209060020201604051806040016040529081600082018054610b359061277c565b80601f0160208091040260200160405190810160405280929190818152602001828054610b619061277c565b8015610bae5780601f10610b8357610100808354040283529160200191610bae565b820191906000526020600020905b815481529060010190602001808311610b9157829003601f168201915b505050505081526020016001820160009054906101000a900473ffffffffffffffffffffffffffffffffffffffff1673ffffffffffffffffffffffffffffffffffffffff1673ffffffffffffffffffffffffffffffffffffffff168152505081526020019060010190610b02565b50505050905090565b610c2e82611322565b610c3757600080fd5b6000610c4233610994565b11610c4c57600080fd5b3373ffffffffffffffffffffffffffffffffffffffff16610c6c836107f4565b73ffffffffffffffffffffffffffffffffffffffff1614610c8c57600080fd5b60066040518060a001604052803373ffffffffffffffffffffffffffffffffffffffff1681526020016006805490508152602001670de0b6b3a764000084610cd49190612b49565b815260200184815260200160001515815250908060018154018082558091505060019003906000526020600020906005020160009091909190915060008201518160000160006101000a81548173ffffffffffffffffffffffffffffffffffffffff021916908373ffffffffffffffffffffffffffffffffffffffff16021790555060208201518160010155604082015181600201556060820151816003015560808201518160040160006101000a81548160ff02191690831515021790555050505050565b610dac610da561138e565b8383611794565b5050565b610dc1610dbb61138e565b8361144f565b610e00576040517f08c379a0000000000000000000000000000000000000000000000000000000008152600401610df7906129d6565b60405180910390fd5b610e0c84848484611901565b50505050565b6060610e1d82611322565b610e2657600080fd5b60078281548110610e3a57610e39612ba3565b5b90600052602060002090600202016000018054610e569061277c565b80601f0160208091040260200160405190810160405280929190818152602001828054610e829061277c565b8015610ecf5780601f10610ea457610100808354040283529160200191610ecf565b820191906000526020600020905b815481529060010190602001808311610eb257829003601f168201915b50505050509050919050565b610eea3360078054905061195d565b600760405180604001604052808381526020013373ffffffffffffffffffffffffffffffffffffffff1681525090806001815401808255809150506001900390600052602060002090600202016000909190919091506000820151816000019080519060200190610f5c929190611cec565b5060208201518160010160006101000a81548173ffffffffffffffffffffffffffffffffffffffff021916908373ffffffffffffffffffffffffffffffffffffffff160217905550505050565b60068181548110610fbd57610fbc612ba3565b5b906000526020600020906005020160020154341015610fdb57600080fd5b60068181548110610fef57610fee612ba3565b5b906000526020600020906005020160000160009054906101000a900473ffffffffffffffffffffffffffffffffffffffff1673ffffffffffffffffffffffffffffffffffffffff163373ffffffffffffffffffffffffffffffffffffffff16141561105957600080fd5b6006818154811061106d5761106c612ba3565b5b906000526020600020906005020160000160009054906101000a900473ffffffffffffffffffffffffffffffffffffffff1673ffffffffffffffffffffffffffffffffffffffff166108fc349081150290604051600060405180830381858888f193505050501580156110e4573d6000803e3d6000fd5b5061115a600682815481106110fc576110fb612ba3565b5b906000526020600020906005020160000160009054906101000a900473ffffffffffffffffffffffffffffffffffffffff16336006848154811061114357611142612ba3565b5b90600052602060002090600502016003015461152d565b3360076006838154811061117157611170612ba3565b5b9060005260206000209060050201600301548154811061119457611193612ba3565b5b906000526020600020906002020160010160006101000a81548173ffffffffffffffffffffffffffffffffffffffff021916908373ffffffffffffffffffffffffffffffffffffffff1602179055506001600682815481106111f9576111f8612ba3565b5b906000526020600020906005020160040160006101000a81548160ff02191690831515021790555050565b6000600560008473ffffffffffffffffffffffffffffffffffffffff1673ffffffffffffffffffffffffffffffffffffffff16815260200190815260200160002060008373ffffffffffffffffffffffffffffffffffffffff1673ffffffffffffffffffffffffffffffffffffffff16815260200190815260200160002060009054906101000a900460ff16905092915050565b60007f01ffc9a7000000000000000000000000000000000000000000000000000000007bffffffffffffffffffffffffffffffffffffffffffffffffffffffff1916827bffffffffffffffffffffffffffffffffffffffffffffffffffffffff1916149050919050565b60008073ffffffffffffffffffffffffffffffffffffffff166002600084815260200190815260200160002060009054906101000a900473ffffffffffffffffffffffffffffffffffffffff1673ffffffffffffffffffffffffffffffffffffffff1614159050919050565b600033905090565b816004600083815260200190815260200160002060006101000a81548173ffffffffffffffffffffffffffffffffffffffff021916908373ffffffffffffffffffffffffffffffffffffffff160217905550808273ffffffffffffffffffffffffffffffffffffffff16611409836107f4565b73ffffffffffffffffffffffffffffffffffffffff167f8c5be1e5ebec7d5bd14f71427d1e84f3dd0314c0f7b2291e5b200ac8c7c3b92560405160405180910390a45050565b600061145a82611322565b611499576040517f08c379a000000000000000000000000000000000000000000000000000000000815260040161149090612c44565b60405180910390fd5b60006114a4836107f4565b90508073ffffffffffffffffffffffffffffffffffffffff168473ffffffffffffffffffffffffffffffffffffffff16148061151357508373ffffffffffffffffffffffffffffffffffffffff166114fb846105d7565b73ffffffffffffffffffffffffffffffffffffffff16145b8061152457506115238185611224565b5b91505092915050565b8273ffffffffffffffffffffffffffffffffffffffff1661154d826107f4565b73ffffffffffffffffffffffffffffffffffffffff16146115a3576040517f08c379a000000000000000000000000000000000000000000000000000000000815260040161159a90612cd6565b60405180910390fd5b600073ffffffffffffffffffffffffffffffffffffffff168273ffffffffffffffffffffffffffffffffffffffff161415611613576040517f08c379a000000000000000000000000000000000000000000000000000000000815260040161160a90612d68565b60405180910390fd5b61161e838383611b37565b611629600082611396565b6001600360008573ffffffffffffffffffffffffffffffffffffffff1673ffffffffffffffffffffffffffffffffffffffff16815260200190815260200160002060008282546116799190612d88565b925050819055506001600360008473ffffffffffffffffffffffffffffffffffffffff1673ffffffffffffffffffffffffffffffffffffffff16815260200190815260200160002060008282546116d09190612dbc565b92505081905550816002600083815260200190815260200160002060006101000a81548173ffffffffffffffffffffffffffffffffffffffff021916908373ffffffffffffffffffffffffffffffffffffffff160217905550808273ffffffffffffffffffffffffffffffffffffffff168473ffffffffffffffffffffffffffffffffffffffff167fddf252ad1be2c89b69c2b068fc378daa952ba7f163c4a11628f55a4df523b3ef60405160405180910390a461178f838383611b3c565b505050565b8173ffffffffffffffffffffffffffffffffffffffff168373ffffffffffffffffffffffffffffffffffffffff161415611803576040517f08c379a00000000000000000000000000000000000000000000000000000000081526004016117fa90612e5e565b60405180910390fd5b80600560008573ffffffffffffffffffffffffffffffffffffffff1673ffffffffffffffffffffffffffffffffffffffff16815260200190815260200160002060008473ffffffffffffffffffffffffffffffffffffffff1673ffffffffffffffffffffffffffffffffffffffff16815260200190815260200160002060006101000a81548160ff0219169083151502179055508173ffffffffffffffffffffffffffffffffffffffff168373ffffffffffffffffffffffffffffffffffffffff167f17307eab39ab6107e8899845ad3d59bd9653f200f220920489ca2b5937696c31836040516118f49190611e43565b60405180910390a3505050565b61190c84848461152d565b61191884848484611b41565b611957576040517f08c379a000000000000000000000000000000000000000000000000000000000815260040161194e90612ef0565b60405180910390fd5b50505050565b600073ffffffffffffffffffffffffffffffffffffffff168273ffffffffffffffffffffffffffffffffffffffff1614156119cd576040517f08c379a00000000000000000000000000000000000000000000000000000000081526004016119c490612f5c565b60405180910390fd5b6119d681611322565b15611a16576040517f08c379a0000000000000000000000000000000000000000000000000000000008152600401611a0d90612fc8565b60405180910390fd5b611a2260008383611b37565b6001600360008473ffffffffffffffffffffffffffffffffffffffff1673ffffffffffffffffffffffffffffffffffffffff1681526020019081526020016000206000828254611a729190612dbc565b92505081905550816002600083815260200190815260200160002060006101000a81548173ffffffffffffffffffffffffffffffffffffffff021916908373ffffffffffffffffffffffffffffffffffffffff160217905550808273ffffffffffffffffffffffffffffffffffffffff16600073ffffffffffffffffffffffffffffffffffffffff167fddf252ad1be2c89b69c2b068fc378daa952ba7f163c4a11628f55a4df523b3ef60405160405180910390a4611b3360008383611b3c565b5050565b505050565b505050565b6000611b628473ffffffffffffffffffffffffffffffffffffffff16611cc9565b15611cbc578373ffffffffffffffffffffffffffffffffffffffff1663150b7a02611b8b61138e565b8786866040518563ffffffff1660e01b8152600401611bad949392919061303d565b6020604051808303816000875af1925050508015611be957506040513d601f19601f82011682018060405250810190611be6919061309e565b60015b611c6c573d8060008114611c19576040519150601f19603f3d011682016040523d82523d6000602084013e611c1e565b606091505b50600081511415611c64576040517f08c379a0000000000000000000000000000000000000000000000000000000008152600401611c5b90612ef0565b60405180910390fd5b805181602001fd5b63150b7a0260e01b7bffffffffffffffffffffffffffffffffffffffffffffffffffffffff1916817bffffffffffffffffffffffffffffffffffffffffffffffffffffffff191614915050611cc1565b600190505b949350505050565b6000808273ffffffffffffffffffffffffffffffffffffffff163b119050919050565b828054611cf89061277c565b90600052602060002090601f016020900481019282611d1a5760008555611d61565b82601f10611d3357805160ff1916838001178555611d61565b82800160010185558215611d61579182015b82811115611d60578251825591602001919060010190611d45565b5b509050611d6e9190611d72565b5090565b5b80821115611d8b576000816000905550600101611d73565b5090565b6000604051905090565b600080fd5b600080fd5b60007fffffffff0000000000000000000000000000000000000000000000000000000082169050919050565b611dd881611da3565b8114611de357600080fd5b50565b600081359050611df581611dcf565b92915050565b600060208284031215611e1157611e10611d99565b5b6000611e1f84828501611de6565b91505092915050565b60008115159050919050565b611e3d81611e28565b82525050565b6000602082019050611e586000830184611e34565b92915050565b600081519050919050565b600082825260208201905092915050565b60005b83811015611e98578082015181840152602081019050611e7d565b83811115611ea7576000848401525b50505050565b6000601f19601f8301169050919050565b6000611ec982611e5e565b611ed38185611e69565b9350611ee3818560208601611e7a565b611eec81611ead565b840191505092915050565b60006020820190508181036000830152611f118184611ebe565b905092915050565b6000819050919050565b611f2c81611f19565b8114611f3757600080fd5b50565b600081359050611f4981611f23565b92915050565b600060208284031215611f6557611f64611d99565b5b6000611f7384828501611f3a565b91505092915050565b600073ffffffffffffffffffffffffffffffffffffffff82169050919050565b6000611fa782611f7c565b9050919050565b611fb781611f9c565b82525050565b6000602082019050611fd26000830184611fae565b92915050565b611fe181611f9c565b8114611fec57600080fd5b50565b600081359050611ffe81611fd8565b92915050565b6000806040838503121561201b5761201a611d99565b5b600061202985828601611fef565b925050602061203a85828601611f3a565b9150509250929050565b60008060006060848603121561205d5761205c611d99565b5b600061206b86828701611fef565b935050602061207c86828701611fef565b925050604061208d86828701611f3a565b9150509250925092565b600081519050919050565b600082825260208201905092915050565b6000819050602082019050919050565b6120cc81611f9c565b82525050565b6120db81611f19565b82525050565b6120ea81611e28565b82525050565b60a08201600082015161210660008501826120c3565b50602082015161211960208501826120d2565b50604082015161212c60408501826120d2565b50606082015161213f60608501826120d2565b50608082015161215260808501826120e1565b50505050565b600061216483836120f0565b60a08301905092915050565b6000602082019050919050565b600061218882612097565b61219281856120a2565b935061219d836120b3565b8060005b838110156121ce5781516121b58882612158565b97506121c083612170565b9250506001810190506121a1565b5085935050505092915050565b600060208201905081810360008301526121f5818461217d565b905092915050565b60006020828403121561221357612212611d99565b5b600061222184828501611fef565b91505092915050565b61223381611f19565b82525050565b600060208201905061224e600083018461222a565b92915050565b600081519050919050565b600082825260208201905092915050565b6000819050602082019050919050565b600082825260208201905092915050565b600061229c82611e5e565b6122a68185612280565b93506122b6818560208601611e7a565b6122bf81611ead565b840191505092915050565b600060408301600083015184820360008601526122e78282612291565b91505060208301516122fc60208601826120c3565b508091505092915050565b600061231383836122ca565b905092915050565b6000602082019050919050565b600061233382612254565b61233d818561225f565b93508360208202850161234f85612270565b8060005b8581101561238b578484038952815161236c8582612307565b94506123778361231b565b925060208a01995050600181019050612353565b50829750879550505050505092915050565b600060208201905081810360008301526123b78184612328565b905092915050565b600080604083850312156123d6576123d5611d99565b5b60006123e485828601611f3a565b92505060206123f585828601611f3a565b9150509250929050565b61240881611e28565b811461241357600080fd5b50565b600081359050612425816123ff565b92915050565b6000806040838503121561244257612441611d99565b5b600061245085828601611fef565b925050602061246185828601612416565b9150509250929050565b600080fd5b600080fd5b7f4e487b7100000000000000000000000000000000000000000000000000000000600052604160045260246000fd5b6124ad82611ead565b810181811067ffffffffffffffff821117156124cc576124cb612475565b5b80604052505050565b60006124df611d8f565b90506124eb82826124a4565b919050565b600067ffffffffffffffff82111561250b5761250a612475565b5b61251482611ead565b9050602081019050919050565b82818337600083830152505050565b600061254361253e846124f0565b6124d5565b90508281526020810184848401111561255f5761255e612470565b5b61256a848285612521565b509392505050565b600082601f8301126125875761258661246b565b5b8135612597848260208601612530565b91505092915050565b600080600080608085870312156125ba576125b9611d99565b5b60006125c887828801611fef565b94505060206125d987828801611fef565b93505060406125ea87828801611f3a565b925050606085013567ffffffffffffffff81111561260b5761260a611d9e565b5b61261787828801612572565b91505092959194509250565b600067ffffffffffffffff82111561263e5761263d612475565b5b61264782611ead565b9050602081019050919050565b600061266761266284612623565b6124d5565b90508281526020810184848401111561268357612682612470565b5b61268e848285612521565b509392505050565b600082601f8301126126ab576126aa61246b565b5b81356126bb848260208601612654565b91505092915050565b6000602082840312156126da576126d9611d99565b5b600082013567ffffffffffffffff8111156126f8576126f7611d9e565b5b61270484828501612696565b91505092915050565b6000806040838503121561272457612723611d99565b5b600061273285828601611fef565b925050602061274385828601611fef565b9150509250929050565b7f4e487b7100000000000000000000000000000000000000000000000000000000600052602260045260246000fd5b6000600282049050600182168061279457607f821691505b602082108114156127a8576127a761274d565b5b50919050565b7f4552433732313a20617070726f76656420717565727920666f72206e6f6e657860008201527f697374656e7420746f6b656e0000000000000000000000000000000000000000602082015250565b600061280a602c83611e69565b9150612815826127ae565b604082019050919050565b60006020820190508181036000830152612839816127fd565b9050919050565b7f4552433732313a20617070726f76616c20746f2063757272656e74206f776e6560008201527f7200000000000000000000000000000000000000000000000000000000000000602082015250565b600061289c602183611e69565b91506128a782612840565b604082019050919050565b600060208201905081810360008301526128cb8161288f565b9050919050565b7f4552433732313a20617070726f76652063616c6c6572206973206e6f74206f7760008201527f6e6572206e6f7220617070726f76656420666f7220616c6c0000000000000000602082015250565b600061292e603883611e69565b9150612939826128d2565b604082019050919050565b6000602082019050818103600083015261295d81612921565b9050919050565b7f4552433732313a207472616e736665722063616c6c6572206973206e6f74206f60008201527f776e6572206e6f7220617070726f766564000000000000000000000000000000602082015250565b60006129c0603183611e69565b91506129cb82612964565b604082019050919050565b600060208201905081810360008301526129ef816129b3565b9050919050565b7f4552433732313a206f776e657220717565727920666f72206e6f6e657869737460008201527f656e7420746f6b656e0000000000000000000000000000000000000000000000602082015250565b6000612a52602983611e69565b9150612a5d826129f6565b604082019050919050565b60006020820190508181036000830152612a8181612a45565b9050919050565b7f4552433732313a2062616c616e636520717565727920666f7220746865207a6560008201527f726f206164647265737300000000000000000000000000000000000000000000602082015250565b6000612ae4602a83611e69565b9150612aef82612a88565b604082019050919050565b60006020820190508181036000830152612b1381612ad7565b9050919050565b7f4e487b7100000000000000000000000000000000000000000000000000000000600052601160045260246000fd5b6000612b5482611f19565b9150612b5f83611f19565b9250817fffffffffffffffffffffffffffffffffffffffffffffffffffffffffffffffff0483118215151615612b9857612b97612b1a565b5b828202905092915050565b7f4e487b7100000000000000000000000000000000000000000000000000000000600052603260045260246000fd5b7f4552433732313a206f70657261746f7220717565727920666f72206e6f6e657860008201527f697374656e7420746f6b656e0000000000000000000000000000000000000000602082015250565b6000612c2e602c83611e69565b9150612c3982612bd2565b604082019050919050565b60006020820190508181036000830152612c5d81612c21565b9050919050565b7f4552433732313a207472616e736665722066726f6d20696e636f72726563742060008201527f6f776e6572000000000000000000000000000000000000000000000000000000602082015250565b6000612cc0602583611e69565b9150612ccb82612c64565b604082019050919050565b60006020820190508181036000830152612cef81612cb3565b9050919050565b7f4552433732313a207472616e7366657220746f20746865207a65726f2061646460008201527f7265737300000000000000000000000000000000000000000000000000000000602082015250565b6000612d52602483611e69565b9150612d5d82612cf6565b604082019050919050565b60006020820190508181036000830152612d8181612d45565b9050919050565b6000612d9382611f19565b9150612d9e83611f19565b925082821015612db157612db0612b1a565b5b828203905092915050565b6000612dc782611f19565b9150612dd283611f19565b9250827fffffffffffffffffffffffffffffffffffffffffffffffffffffffffffffffff03821115612e0757612e06612b1a565b5b828201905092915050565b7f4552433732313a20617070726f766520746f2063616c6c657200000000000000600082015250565b6000612e48601983611e69565b9150612e5382612e12565b602082019050919050565b60006020820190508181036000830152612e7781612e3b565b9050919050565b7f4552433732313a207472616e7366657220746f206e6f6e20455243373231526560008201527f63656976657220696d706c656d656e7465720000000000000000000000000000602082015250565b6000612eda603283611e69565b9150612ee582612e7e565b604082019050919050565b60006020820190508181036000830152612f0981612ecd565b9050919050565b7f4552433732313a206d696e7420746f20746865207a65726f2061646472657373600082015250565b6000612f46602083611e69565b9150612f5182612f10565b602082019050919050565b60006020820190508181036000830152612f7581612f39565b9050919050565b7f4552433732313a20746f6b656e20616c7265616479206d696e74656400000000600082015250565b6000612fb2601c83611e69565b9150612fbd82612f7c565b602082019050919050565b60006020820190508181036000830152612fe181612fa5565b9050919050565b600081519050919050565b600082825260208201905092915050565b600061300f82612fe8565b6130198185612ff3565b9350613029818560208601611e7a565b61303281611ead565b840191505092915050565b60006080820190506130526000830187611fae565b61305f6020830186611fae565b61306c604083018561222a565b818103606083015261307e8184613004565b905095945050505050565b60008151905061309881611dcf565b92915050565b6000602082840312156130b4576130b3611d99565b5b60006130c284828501613089565b9150509291505056fea264697066735822122092b834f4cfe4abed27a065113aefab0dd5bb18f18217b291a735776c13862edb64736f6c634300080c0033",
  "immutableReferences": {},
  "source": "// SPDX-License-Identifier: MIT\npragma solidity ^0.8.12;\n\nimport \"@openzeppelin/contracts/token/ERC721/ERC721.sol\";\n\ncontract PerlToken is ERC721 {\n    struct Token {\n        string url;\n        address owner;\n    }\n\n    struct Offer {\n        address sender;\n        uint256 id;\n        uint256 price;\n        uint256 tokenId;\n        bool is_sold;\n    }\n\n    Offer[] private _offers;\n    Token[] private _tokens;\n\n    constructor() ERC721(\"PerlToken\", \"PRL\") {}\n\n    function mint(string memory url) public {\n        _mint(msg.sender, _tokens.length);\n        _tokens.push(Token(url, msg.sender));\n    }\n\n    function buy(uint256 id) public payable {\n        require(msg.value >= _offers[id].price);\n        require(msg.sender != _offers[id].sender);\n\n        payable(_offers[id].sender).transfer(msg.value);\n        _transfer(_offers[id].sender, msg.sender, _offers[id].tokenId);\n\n        _tokens[_offers[id].tokenId].owner = msg.sender;\n        _offers[id].is_sold = true;\n    }\n\n    function offer(uint256 tokenId, uint256 price) public {\n        require(_exists(tokenId));\n        require(balanceOf(msg.sender) > 0);\n        require(ownerOf(tokenId) == msg.sender);\n\n        _offers.push(\n            Offer(msg.sender, _offers.length, price * 10**18, tokenId, false)\n        );\n    }\n\n    function tokenURI(uint256 tokenId)\n        public\n        view\n        override\n        returns (string memory)\n    {\n        require(_exists(tokenId));\n        return _tokens[tokenId].url;\n    }\n\n    function offers() public returns (Offer[] memory) {\n        return _offers;\n    }\n\n    function tokens() public returns (Token[] memory) {\n        return _tokens;\n    }\n}\n",
  "sourcePath": "/home/david//Projects/Test/solidity/contracts/PerlToken.sol",
  "compiler": {
    "name": "solc",
    "version": "0.8.12+commit.f00d7308.Emscripten.clang"
  },
  "schemaVersion": "3.4.6",
  "updatedAt": "2022-03-18T14:30:07.665Z",
  "networkType": "ethereum",
  "devdoc": {
    "kind": "dev",
    "methods": {
      "approve(address,uint256)": {
        "details": "See {IERC721-approve}."
      },
      "balanceOf(address)": {
        "details": "See {IERC721-balanceOf}."
      },
      "getApproved(uint256)": {
        "details": "See {IERC721-getApproved}."
      },
      "isApprovedForAll(address,address)": {
        "details": "See {IERC721-isApprovedForAll}."
      },
      "name()": {
        "details": "See {IERC721Metadata-name}."
      },
      "ownerOf(uint256)": {
        "details": "See {IERC721-ownerOf}."
      },
      "safeTransferFrom(address,address,uint256)": {
        "details": "See {IERC721-safeTransferFrom}."
      },
      "safeTransferFrom(address,address,uint256,bytes)": {
        "details": "See {IERC721-safeTransferFrom}."
      },
      "setApprovalForAll(address,bool)": {
        "details": "See {IERC721-setApprovalForAll}."
      },
      "supportsInterface(bytes4)": {
        "details": "See {IERC165-supportsInterface}."
      },
      "symbol()": {
        "details": "See {IERC721Metadata-symbol}."
      },
      "tokenURI(uint256)": {
        "details": "See {IERC721Metadata-tokenURI}."
      },
      "transferFrom(address,address,uint256)": {
        "details": "See {IERC721-transferFrom}."
      }
    },
    "version": 1
  },
  "userdoc": {
    "kind": "user",
    "methods": {},
    "version": 1
  }
}