{
  "contractName": "PerlToken",
  "abi": [
    {
      "inputs": [],
      "stateMutability": "nonpayable",
      "type": "constructor"
    },
    {
      "anonymous": false,
      "inputs": [
        {
          "indexed": true,
          "internalType": "address",
          "name": "owner",
          "type": "address"
        },
        {
          "indexed": true,
          "internalType": "address",
          "name": "approved",
          "type": "address"
        },
        {
          "indexed": true,
          "internalType": "uint256",
          "name": "tokenId",
          "type": "uint256"
        }
      ],
      "name": "Approval",
      "type": "event"
    },
    {
      "anonymous": false,
      "inputs": [
        {
          "indexed": true,
          "internalType": "address",
          "name": "owner",
          "type": "address"
        },
        {
          "indexed": true,
          "internalType": "address",
          "name": "operator",
          "type": "address"
        },
        {
          "indexed": false,
          "internalType": "bool",
          "name": "approved",
          "type": "bool"
        }
      ],
      "name": "ApprovalForAll",
      "type": "event"
    },
    {
      "anonymous": false,
      "inputs": [
        {
          "indexed": true,
          "internalType": "address",
          "name": "from",
          "type": "address"
        },
        {
          "indexed": true,
          "internalType": "address",
          "name": "to",
          "type": "address"
        },
        {
          "indexed": true,
          "internalType": "uint256",
          "name": "tokenId",
          "type": "uint256"
        }
      ],
      "name": "Transfer",
      "type": "event"
    },
    {
      "inputs": [
        {
          "internalType": "address",
          "name": "to",
          "type": "address"
        },
        {
          "internalType": "uint256",
          "name": "tokenId",
          "type": "uint256"
        }
      ],
      "name": "approve",
      "outputs": [],
      "stateMutability": "nonpayable",
      "type": "function"
    },
    {
      "inputs": [
        {
          "internalType": "address",
          "name": "owner",
          "type": "address"
        }
      ],
      "name": "balanceOf",
      "outputs": [
        {
          "internalType": "uint256",
          "name": "",
          "type": "uint256"
        }
      ],
      "stateMutability": "view",
      "type": "function",
      "constant": true
    },
    {
      "inputs": [
        {
          "internalType": "uint256",
          "name": "tokenId",
          "type": "uint256"
        }
      ],
      "name": "getApproved",
      "outputs": [
        {
          "internalType": "address",
          "name": "",
          "type": "address"
        }
      ],
      "stateMutability": "view",
      "type": "function",
      "constant": true
    },
    {
      "inputs": [
        {
          "internalType": "address",
          "name": "owner",
          "type": "address"
        },
        {
          "internalType": "address",
          "name": "operator",
          "type": "address"
        }
      ],
      "name": "isApprovedForAll",
      "outputs": [
        {
          "internalType": "bool",
          "name": "",
          "type": "bool"
        }
      ],
      "stateMutability": "view",
      "type": "function",
      "constant": true
    },
    {
      "inputs": [],
      "name": "name",
      "outputs": [
        {
          "internalType": "string",
          "name": "",
          "type": "string"
        }
      ],
      "stateMutability": "view",
      "type": "function",
      "constant": true
    },
    {
      "inputs": [
        {
          "internalType": "uint256",
          "name": "tokenId",
          "type": "uint256"
        }
      ],
      "name": "ownerOf",
      "outputs": [
        {
          "internalType": "address",
          "name": "",
          "type": "address"
        }
      ],
      "stateMutability": "view",
      "type": "function",
      "constant": true
    },
    {
      "inputs": [
        {
          "internalType": "address",
          "name": "from",
          "type": "address"
        },
        {
          "internalType": "address",
          "name": "to",
          "type": "address"
        },
        {
          "internalType": "uint256",
          "name": "tokenId",
          "type": "uint256"
        }
      ],
      "name": "safeTransferFrom",
      "outputs": [],
      "stateMutability": "nonpayable",
      "type": "function"
    },
    {
      "inputs": [
        {
          "internalType": "address",
          "name": "from",
          "type": "address"
        },
        {
          "internalType": "address",
          "name": "to",
          "type": "address"
        },
        {
          "internalType": "uint256",
          "name": "tokenId",
          "type": "uint256"
        },
        {
          "internalType": "bytes",
          "name": "_data",
          "type": "bytes"
        }
      ],
      "name": "safeTransferFrom",
      "outputs": [],
      "stateMutability": "nonpayable",
      "type": "function"
    },
    {
      "inputs": [
        {
          "internalType": "address",
          "name": "operator",
          "type": "address"
        },
        {
          "internalType": "bool",
          "name": "approved",
          "type": "bool"
        }
      ],
      "name": "setApprovalForAll",
      "outputs": [],
      "stateMutability": "nonpayable",
      "type": "function"
    },
    {
      "inputs": [
        {
          "internalType": "bytes4",
          "name": "interfaceId",
          "type": "bytes4"
        }
      ],
      "name": "supportsInterface",
      "outputs": [
        {
          "internalType": "bool",
          "name": "",
          "type": "bool"
        }
      ],
      "stateMutability": "view",
      "type": "function",
      "constant": true
    },
    {
      "inputs": [],
      "name": "symbol",
      "outputs": [
        {
          "internalType": "string",
          "name": "",
          "type": "string"
        }
      ],
      "stateMutability": "view",
      "type": "function",
      "constant": true
    },
    {
      "inputs": [
        {
          "internalType": "address",
          "name": "from",
          "type": "address"
        },
        {
          "internalType": "address",
          "name": "to",
          "type": "address"
        },
        {
          "internalType": "uint256",
          "name": "tokenId",
          "type": "uint256"
        }
      ],
      "name": "transferFrom",
      "outputs": [],
      "stateMutability": "nonpayable",
      "type": "function"
    },
    {
      "inputs": [
        {
          "internalType": "string",
          "name": "url",
          "type": "string"
        }
      ],
      "name": "mint",
      "outputs": [],
      "stateMutability": "nonpayable",
      "type": "function"
    },
    {
      "inputs": [
        {
          "internalType": "uint256",
          "name": "tokenId",
          "type": "uint256"
        }
      ],
      "name": "buy",
      "outputs": [],
      "stateMutability": "payable",
      "type": "function",
      "payable": true
    },
    {
      "inputs": [
        {
          "internalType": "uint256",
          "name": "tokenId",
          "type": "uint256"
        },
        {
          "internalType": "uint256",
          "name": "price",
          "type": "uint256"
        }
      ],
      "name": "offer",
      "outputs": [],
      "stateMutability": "nonpayable",
      "type": "function"
    },
    {
      "inputs": [
        {
          "internalType": "uint256",
          "name": "tokenId",
          "type": "uint256"
        }
      ],
      "name": "tokenURI",
      "outputs": [
        {
          "internalType": "string",
          "name": "",
          "type": "string"
        }
      ],
      "stateMutability": "view",
      "type": "function",
      "constant": true
    },
    {
      "inputs": [],
      "name": "offers",
      "outputs": [
        {
          "components": [
            {
              "internalType": "address",
              "name": "sender",
              "type": "address"
            },
            {
              "internalType": "uint256",
              "name": "id",
              "type": "uint256"
            },
            {
              "internalType": "uint256",
              "name": "price",
              "type": "uint256"
            },
            {
              "internalType": "bool",
              "name": "is_sold",
              "type": "bool"
            }
          ],
          "internalType": "struct PerlToken.Offer[]",
          "name": "",
          "type": "tuple[]"
        }
      ],
      "stateMutability": "nonpayable",
      "type": "function"
    },
    {
      "inputs": [],
      "name": "tokens",
      "outputs": [
        {
          "components": [
            {
              "internalType": "string",
              "name": "url",
              "type": "string"
            },
            {
              "internalType": "address",
              "name": "owner",
              "type": "address"
            }
          ],
          "internalType": "struct PerlToken.Token[]",
          "name": "",
          "type": "tuple[]"
        }
      ],
      "stateMutability": "nonpayable",
      "type": "function"
    }
  ],
  "bytecode": "0x60806040523480156200001157600080fd5b506040518060400160405280600981526020017f5065726c546f6b656e00000000000000000000000000000000000000000000008152506040518060400160405280600381526020017f50524c0000000000000000000000000000000000000000000000000000000000815250816000908051906020019062000096929190620000b8565b508060019080519060200190620000af929190620000b8565b505050620001cd565b828054620000c69062000197565b90600052602060002090601f016020900481019282620000ea576000855562000136565b82601f106200010557805160ff191683800117855562000136565b8280016001018555821562000136579182015b828111156200013557825182559160200191906001019062000118565b5b50905062000145919062000149565b5090565b5b80821115620001645760008160009055506001016200014a565b5090565b7f4e487b7100000000000000000000000000000000000000000000000000000000600052602260045260246000fd5b60006002820490506001821680620001b057607f821691505b60208210811415620001c757620001c662000168565b5b50919050565b61308580620001dd6000396000f3fe6080604052600436106101095760003560e01c806395d89b4111610095578063b88d4fde11610064578063b88d4fde1461037b578063c87b56dd146103a4578063d85d3d27146103e1578063d96a094a1461040a578063e985e9c51461042657610109565b806395d89b41146102d35780639d63848a146102fe578063a192058614610329578063a22cb4651461035257610109565b806323b872dd116100dc57806323b872dd146101dc57806342842e0e146102055780636352211e1461022e57806368d83aa71461026b57806370a082311461029657610109565b806301ffc9a71461010e57806306fdde031461014b578063081812fc14610176578063095ea7b3146101b3575b600080fd5b34801561011a57600080fd5b5061013560048036038101906101309190611d92565b610463565b6040516101429190611dda565b60405180910390f35b34801561015757600080fd5b50610160610545565b60405161016d9190611e8e565b60405180910390f35b34801561018257600080fd5b5061019d60048036038101906101989190611ee6565b6105d7565b6040516101aa9190611f54565b60405180910390f35b3480156101bf57600080fd5b506101da60048036038101906101d59190611f9b565b61065c565b005b3480156101e857600080fd5b5061020360048036038101906101fe9190611fdb565b610774565b005b34801561021157600080fd5b5061022c60048036038101906102279190611fdb565b6107d4565b005b34801561023a57600080fd5b5061025560048036038101906102509190611ee6565b6107f4565b6040516102629190611f54565b60405180910390f35b34801561027757600080fd5b506102806108a6565b60405161028d919061215f565b60405180910390f35b3480156102a257600080fd5b506102bd60048036038101906102b89190612181565b61098a565b6040516102ca91906121bd565b60405180910390f35b3480156102df57600080fd5b506102e8610a42565b6040516102f59190611e8e565b60405180910390f35b34801561030a57600080fd5b50610313610ad4565b6040516103209190612321565b60405180910390f35b34801561033557600080fd5b50610350600480360381019061034b9190612343565b610c1b565b005b34801561035e57600080fd5b50610379600480360381019061037491906123af565b610d7b565b005b34801561038757600080fd5b506103a2600480360381019061039d9190612524565b610d91565b005b3480156103b057600080fd5b506103cb60048036038101906103c69190611ee6565b610df3565b6040516103d89190611e8e565b60405180910390f35b3480156103ed57600080fd5b5061040860048036038101906104039190612648565b610ebc565b005b610424600480360381019061041f9190611ee6565b610f8a565b005b34801561043257600080fd5b5061044d60048036038101906104489190612691565b6111bb565b60405161045a9190611dda565b60405180910390f35b60007f80ac58cd000000000000000000000000000000000000000000000000000000007bffffffffffffffffffffffffffffffffffffffffffffffffffffffff1916827bffffffffffffffffffffffffffffffffffffffffffffffffffffffff1916148061052e57507f5b5e139f000000000000000000000000000000000000000000000000000000007bffffffffffffffffffffffffffffffffffffffffffffffffffffffff1916827bffffffffffffffffffffffffffffffffffffffffffffffffffffffff1916145b8061053e575061053d8261124f565b5b9050919050565b60606000805461055490612700565b80601f016020809104026020016040519081016040528092919081815260200182805461058090612700565b80156105cd5780601f106105a2576101008083540402835291602001916105cd565b820191906000526020600020905b8154815290600101906020018083116105b057829003601f168201915b5050505050905090565b60006105e2826112b9565b610621576040517f08c379a0000000000000000000000000000000000000000000000000000000008152600401610618906127a4565b60405180910390fd5b6004600083815260200190815260200160002060009054906101000a900473ffffffffffffffffffffffffffffffffffffffff169050919050565b6000610667826107f4565b90508073ffffffffffffffffffffffffffffffffffffffff168373ffffffffffffffffffffffffffffffffffffffff1614156106d8576040517f08c379a00000000000000000000000000000000000000000000000000000000081526004016106cf90612836565b60405180910390fd5b8073ffffffffffffffffffffffffffffffffffffffff166106f7611325565b73ffffffffffffffffffffffffffffffffffffffff161480610726575061072581610720611325565b6111bb565b5b610765576040517f08c379a000000000000000000000000000000000000000000000000000000000815260040161075c906128c8565b60405180910390fd5b61076f838361132d565b505050565b61078561077f611325565b826113e6565b6107c4576040517f08c379a00000000000000000000000000000000000000000000000000000000081526004016107bb9061295a565b60405180910390fd5b6107cf8383836114c4565b505050565b6107ef83838360405180602001604052806000815250610d91565b505050565b6000806002600084815260200190815260200160002060009054906101000a900473ffffffffffffffffffffffffffffffffffffffff169050600073ffffffffffffffffffffffffffffffffffffffff168173ffffffffffffffffffffffffffffffffffffffff16141561089d576040517f08c379a0000000000000000000000000000000000000000000000000000000008152600401610894906129ec565b60405180910390fd5b80915050919050565b60606006805480602002602001604051908101604052809291908181526020016000905b8282101561098157838290600052602060002090600402016040518060800160405290816000820160009054906101000a900473ffffffffffffffffffffffffffffffffffffffff1673ffffffffffffffffffffffffffffffffffffffff1673ffffffffffffffffffffffffffffffffffffffff16815260200160018201548152602001600282015481526020016003820160009054906101000a900460ff161515151581525050815260200190600101906108ca565b50505050905090565b60008073ffffffffffffffffffffffffffffffffffffffff168273ffffffffffffffffffffffffffffffffffffffff1614156109fb576040517f08c379a00000000000000000000000000000000000000000000000000000000081526004016109f290612a7e565b60405180910390fd5b600360008373ffffffffffffffffffffffffffffffffffffffff1673ffffffffffffffffffffffffffffffffffffffff168152602001908152602001600020549050919050565b606060018054610a5190612700565b80601f0160208091040260200160405190810160405280929190818152602001828054610a7d90612700565b8015610aca5780601f10610a9f57610100808354040283529160200191610aca565b820191906000526020600020905b815481529060010190602001808311610aad57829003601f168201915b5050505050905090565b60606007805480602002602001604051908101604052809291908181526020016000905b82821015610c125783829060005260206000209060020201604051806040016040529081600082018054610b2b90612700565b80601f0160208091040260200160405190810160405280929190818152602001828054610b5790612700565b8015610ba45780601f10610b7957610100808354040283529160200191610ba4565b820191906000526020600020905b815481529060010190602001808311610b8757829003601f168201915b505050505081526020016001820160009054906101000a900473ffffffffffffffffffffffffffffffffffffffff1673ffffffffffffffffffffffffffffffffffffffff1673ffffffffffffffffffffffffffffffffffffffff168152505081526020019060010190610af8565b50505050905090565b610c24826112b9565b610c2d57600080fd5b6000610c383361098a565b11610c4257600080fd5b3373ffffffffffffffffffffffffffffffffffffffff16610c62836107f4565b73ffffffffffffffffffffffffffffffffffffffff1614610c8257600080fd5b600660405180608001604052803373ffffffffffffffffffffffffffffffffffffffff168152602001848152602001670de0b6b3a764000084610cc59190612acd565b815260200160001515815250908060018154018082558091505060019003906000526020600020906004020160009091909190915060008201518160000160006101000a81548173ffffffffffffffffffffffffffffffffffffffff021916908373ffffffffffffffffffffffffffffffffffffffff160217905550602082015181600101556040820151816002015560608201518160030160006101000a81548160ff02191690831515021790555050505050565b610d8d610d86611325565b838361172b565b5050565b610da2610d9c611325565b836113e6565b610de1576040517f08c379a0000000000000000000000000000000000000000000000000000000008152600401610dd89061295a565b60405180910390fd5b610ded84848484611898565b50505050565b6060610dfe826112b9565b610e0757600080fd5b60078281548110610e1b57610e1a612b27565b5b90600052602060002090600202016000018054610e3790612700565b80601f0160208091040260200160405190810160405280929190818152602001828054610e6390612700565b8015610eb05780601f10610e8557610100808354040283529160200191610eb0565b820191906000526020600020905b815481529060010190602001808311610e9357829003601f168201915b50505050509050919050565b610ecb336007805490506118f4565b600760405180604001604052808381526020013373ffffffffffffffffffffffffffffffffffffffff1681525090806001815401808255809150506001900390600052602060002090600202016000909190919091506000820151816000019080519060200190610f3d929190611c83565b5060208201518160010160006101000a81548173ffffffffffffffffffffffffffffffffffffffff021916908373ffffffffffffffffffffffffffffffffffffffff160217905550505050565b60068181548110610f9e57610f9d612b27565b5b906000526020600020906004020160020154341015610fbc57600080fd5b60068181548110610fd057610fcf612b27565b5b906000526020600020906004020160000160009054906101000a900473ffffffffffffffffffffffffffffffffffffffff1673ffffffffffffffffffffffffffffffffffffffff163373ffffffffffffffffffffffffffffffffffffffff16141561103a57600080fd5b6006818154811061104e5761104d612b27565b5b906000526020600020906004020160000160009054906101000a900473ffffffffffffffffffffffffffffffffffffffff1673ffffffffffffffffffffffffffffffffffffffff166108fc349081150290604051600060405180830381858888f193505050501580156110c5573d6000803e3d6000fd5b50611116600682815481106110dd576110dc612b27565b5b906000526020600020906004020160000160009054906101000a900473ffffffffffffffffffffffffffffffffffffffff1633836114c4565b336007828154811061112b5761112a612b27565b5b906000526020600020906002020160010160006101000a81548173ffffffffffffffffffffffffffffffffffffffff021916908373ffffffffffffffffffffffffffffffffffffffff1602179055506001600682815481106111905761118f612b27565b5b906000526020600020906004020160030160006101000a81548160ff02191690831515021790555050565b6000600560008473ffffffffffffffffffffffffffffffffffffffff1673ffffffffffffffffffffffffffffffffffffffff16815260200190815260200160002060008373ffffffffffffffffffffffffffffffffffffffff1673ffffffffffffffffffffffffffffffffffffffff16815260200190815260200160002060009054906101000a900460ff16905092915050565b60007f01ffc9a7000000000000000000000000000000000000000000000000000000007bffffffffffffffffffffffffffffffffffffffffffffffffffffffff1916827bffffffffffffffffffffffffffffffffffffffffffffffffffffffff1916149050919050565b60008073ffffffffffffffffffffffffffffffffffffffff166002600084815260200190815260200160002060009054906101000a900473ffffffffffffffffffffffffffffffffffffffff1673ffffffffffffffffffffffffffffffffffffffff1614159050919050565b600033905090565b816004600083815260200190815260200160002060006101000a81548173ffffffffffffffffffffffffffffffffffffffff021916908373ffffffffffffffffffffffffffffffffffffffff160217905550808273ffffffffffffffffffffffffffffffffffffffff166113a0836107f4565b73ffffffffffffffffffffffffffffffffffffffff167f8c5be1e5ebec7d5bd14f71427d1e84f3dd0314c0f7b2291e5b200ac8c7c3b92560405160405180910390a45050565b60006113f1826112b9565b611430576040517f08c379a000000000000000000000000000000000000000000000000000000000815260040161142790612bc8565b60405180910390fd5b600061143b836107f4565b90508073ffffffffffffffffffffffffffffffffffffffff168473ffffffffffffffffffffffffffffffffffffffff1614806114aa57508373ffffffffffffffffffffffffffffffffffffffff16611492846105d7565b73ffffffffffffffffffffffffffffffffffffffff16145b806114bb57506114ba81856111bb565b5b91505092915050565b8273ffffffffffffffffffffffffffffffffffffffff166114e4826107f4565b73ffffffffffffffffffffffffffffffffffffffff161461153a576040517f08c379a000000000000000000000000000000000000000000000000000000000815260040161153190612c5a565b60405180910390fd5b600073ffffffffffffffffffffffffffffffffffffffff168273ffffffffffffffffffffffffffffffffffffffff1614156115aa576040517f08c379a00000000000000000000000000000000000000000000000000000000081526004016115a190612cec565b60405180910390fd5b6115b5838383611ace565b6115c060008261132d565b6001600360008573ffffffffffffffffffffffffffffffffffffffff1673ffffffffffffffffffffffffffffffffffffffff16815260200190815260200160002060008282546116109190612d0c565b925050819055506001600360008473ffffffffffffffffffffffffffffffffffffffff1673ffffffffffffffffffffffffffffffffffffffff16815260200190815260200160002060008282546116679190612d40565b92505081905550816002600083815260200190815260200160002060006101000a81548173ffffffffffffffffffffffffffffffffffffffff021916908373ffffffffffffffffffffffffffffffffffffffff160217905550808273ffffffffffffffffffffffffffffffffffffffff168473ffffffffffffffffffffffffffffffffffffffff167fddf252ad1be2c89b69c2b068fc378daa952ba7f163c4a11628f55a4df523b3ef60405160405180910390a4611726838383611ad3565b505050565b8173ffffffffffffffffffffffffffffffffffffffff168373ffffffffffffffffffffffffffffffffffffffff16141561179a576040517f08c379a000000000000000000000000000000000000000000000000000000000815260040161179190612de2565b60405180910390fd5b80600560008573ffffffffffffffffffffffffffffffffffffffff1673ffffffffffffffffffffffffffffffffffffffff16815260200190815260200160002060008473ffffffffffffffffffffffffffffffffffffffff1673ffffffffffffffffffffffffffffffffffffffff16815260200190815260200160002060006101000a81548160ff0219169083151502179055508173ffffffffffffffffffffffffffffffffffffffff168373ffffffffffffffffffffffffffffffffffffffff167f17307eab39ab6107e8899845ad3d59bd9653f200f220920489ca2b5937696c318360405161188b9190611dda565b60405180910390a3505050565b6118a38484846114c4565b6118af84848484611ad8565b6118ee576040517f08c379a00000000000000000000000000000000000000000000000000000000081526004016118e590612e74565b60405180910390fd5b50505050565b600073ffffffffffffffffffffffffffffffffffffffff168273ffffffffffffffffffffffffffffffffffffffff161415611964576040517f08c379a000000000000000000000000000000000000000000000000000000000815260040161195b90612ee0565b60405180910390fd5b61196d816112b9565b156119ad576040517f08c379a00000000000000000000000000000000000000000000000000000000081526004016119a490612f4c565b60405180910390fd5b6119b960008383611ace565b6001600360008473ffffffffffffffffffffffffffffffffffffffff1673ffffffffffffffffffffffffffffffffffffffff1681526020019081526020016000206000828254611a099190612d40565b92505081905550816002600083815260200190815260200160002060006101000a81548173ffffffffffffffffffffffffffffffffffffffff021916908373ffffffffffffffffffffffffffffffffffffffff160217905550808273ffffffffffffffffffffffffffffffffffffffff16600073ffffffffffffffffffffffffffffffffffffffff167fddf252ad1be2c89b69c2b068fc378daa952ba7f163c4a11628f55a4df523b3ef60405160405180910390a4611aca60008383611ad3565b5050565b505050565b505050565b6000611af98473ffffffffffffffffffffffffffffffffffffffff16611c60565b15611c53578373ffffffffffffffffffffffffffffffffffffffff1663150b7a02611b22611325565b8786866040518563ffffffff1660e01b8152600401611b449493929190612fc1565b6020604051808303816000875af1925050508015611b8057506040513d601f19601f82011682018060405250810190611b7d9190613022565b60015b611c03573d8060008114611bb0576040519150601f19603f3d011682016040523d82523d6000602084013e611bb5565b606091505b50600081511415611bfb576040517f08c379a0000000000000000000000000000000000000000000000000000000008152600401611bf290612e74565b60405180910390fd5b805181602001fd5b63150b7a0260e01b7bffffffffffffffffffffffffffffffffffffffffffffffffffffffff1916817bffffffffffffffffffffffffffffffffffffffffffffffffffffffff191614915050611c58565b600190505b949350505050565b6000808273ffffffffffffffffffffffffffffffffffffffff163b119050919050565b828054611c8f90612700565b90600052602060002090601f016020900481019282611cb15760008555611cf8565b82601f10611cca57805160ff1916838001178555611cf8565b82800160010185558215611cf8579182015b82811115611cf7578251825591602001919060010190611cdc565b5b509050611d059190611d09565b5090565b5b80821115611d22576000816000905550600101611d0a565b5090565b6000604051905090565b600080fd5b600080fd5b60007fffffffff0000000000000000000000000000000000000000000000000000000082169050919050565b611d6f81611d3a565b8114611d7a57600080fd5b50565b600081359050611d8c81611d66565b92915050565b600060208284031215611da857611da7611d30565b5b6000611db684828501611d7d565b91505092915050565b60008115159050919050565b611dd481611dbf565b82525050565b6000602082019050611def6000830184611dcb565b92915050565b600081519050919050565b600082825260208201905092915050565b60005b83811015611e2f578082015181840152602081019050611e14565b83811115611e3e576000848401525b50505050565b6000601f19601f8301169050919050565b6000611e6082611df5565b611e6a8185611e00565b9350611e7a818560208601611e11565b611e8381611e44565b840191505092915050565b60006020820190508181036000830152611ea88184611e55565b905092915050565b6000819050919050565b611ec381611eb0565b8114611ece57600080fd5b50565b600081359050611ee081611eba565b92915050565b600060208284031215611efc57611efb611d30565b5b6000611f0a84828501611ed1565b91505092915050565b600073ffffffffffffffffffffffffffffffffffffffff82169050919050565b6000611f3e82611f13565b9050919050565b611f4e81611f33565b82525050565b6000602082019050611f696000830184611f45565b92915050565b611f7881611f33565b8114611f8357600080fd5b50565b600081359050611f9581611f6f565b92915050565b60008060408385031215611fb257611fb1611d30565b5b6000611fc085828601611f86565b9250506020611fd185828601611ed1565b9150509250929050565b600080600060608486031215611ff457611ff3611d30565b5b600061200286828701611f86565b935050602061201386828701611f86565b925050604061202486828701611ed1565b9150509250925092565b600081519050919050565b600082825260208201905092915050565b6000819050602082019050919050565b61206381611f33565b82525050565b61207281611eb0565b82525050565b61208181611dbf565b82525050565b60808201600082015161209d600085018261205a565b5060208201516120b06020850182612069565b5060408201516120c36040850182612069565b5060608201516120d66060850182612078565b50505050565b60006120e88383612087565b60808301905092915050565b6000602082019050919050565b600061210c8261202e565b6121168185612039565b93506121218361204a565b8060005b8381101561215257815161213988826120dc565b9750612144836120f4565b925050600181019050612125565b5085935050505092915050565b600060208201905081810360008301526121798184612101565b905092915050565b60006020828403121561219757612196611d30565b5b60006121a584828501611f86565b91505092915050565b6121b781611eb0565b82525050565b60006020820190506121d260008301846121ae565b92915050565b600081519050919050565b600082825260208201905092915050565b6000819050602082019050919050565b600082825260208201905092915050565b600061222082611df5565b61222a8185612204565b935061223a818560208601611e11565b61224381611e44565b840191505092915050565b6000604083016000830151848203600086015261226b8282612215565b9150506020830151612280602086018261205a565b508091505092915050565b6000612297838361224e565b905092915050565b6000602082019050919050565b60006122b7826121d8565b6122c181856121e3565b9350836020820285016122d3856121f4565b8060005b8581101561230f57848403895281516122f0858261228b565b94506122fb8361229f565b925060208a019950506001810190506122d7565b50829750879550505050505092915050565b6000602082019050818103600083015261233b81846122ac565b905092915050565b6000806040838503121561235a57612359611d30565b5b600061236885828601611ed1565b925050602061237985828601611ed1565b9150509250929050565b61238c81611dbf565b811461239757600080fd5b50565b6000813590506123a981612383565b92915050565b600080604083850312156123c6576123c5611d30565b5b60006123d485828601611f86565b92505060206123e58582860161239a565b9150509250929050565b600080fd5b600080fd5b7f4e487b7100000000000000000000000000000000000000000000000000000000600052604160045260246000fd5b61243182611e44565b810181811067ffffffffffffffff821117156124505761244f6123f9565b5b80604052505050565b6000612463611d26565b905061246f8282612428565b919050565b600067ffffffffffffffff82111561248f5761248e6123f9565b5b61249882611e44565b9050602081019050919050565b82818337600083830152505050565b60006124c76124c284612474565b612459565b9050828152602081018484840111156124e3576124e26123f4565b5b6124ee8482856124a5565b509392505050565b600082601f83011261250b5761250a6123ef565b5b813561251b8482602086016124b4565b91505092915050565b6000806000806080858703121561253e5761253d611d30565b5b600061254c87828801611f86565b945050602061255d87828801611f86565b935050604061256e87828801611ed1565b925050606085013567ffffffffffffffff81111561258f5761258e611d35565b5b61259b878288016124f6565b91505092959194509250565b600067ffffffffffffffff8211156125c2576125c16123f9565b5b6125cb82611e44565b9050602081019050919050565b60006125eb6125e6846125a7565b612459565b905082815260208101848484011115612607576126066123f4565b5b6126128482856124a5565b509392505050565b600082601f83011261262f5761262e6123ef565b5b813561263f8482602086016125d8565b91505092915050565b60006020828403121561265e5761265d611d30565b5b600082013567ffffffffffffffff81111561267c5761267b611d35565b5b6126888482850161261a565b91505092915050565b600080604083850312156126a8576126a7611d30565b5b60006126b685828601611f86565b92505060206126c785828601611f86565b9150509250929050565b7f4e487b7100000000000000000000000000000000000000000000000000000000600052602260045260246000fd5b6000600282049050600182168061271857607f821691505b6020821081141561272c5761272b6126d1565b5b50919050565b7f4552433732313a20617070726f76656420717565727920666f72206e6f6e657860008201527f697374656e7420746f6b656e0000000000000000000000000000000000000000602082015250565b600061278e602c83611e00565b915061279982612732565b604082019050919050565b600060208201905081810360008301526127bd81612781565b9050919050565b7f4552433732313a20617070726f76616c20746f2063757272656e74206f776e6560008201527f7200000000000000000000000000000000000000000000000000000000000000602082015250565b6000612820602183611e00565b915061282b826127c4565b604082019050919050565b6000602082019050818103600083015261284f81612813565b9050919050565b7f4552433732313a20617070726f76652063616c6c6572206973206e6f74206f7760008201527f6e6572206e6f7220617070726f76656420666f7220616c6c0000000000000000602082015250565b60006128b2603883611e00565b91506128bd82612856565b604082019050919050565b600060208201905081810360008301526128e1816128a5565b9050919050565b7f4552433732313a207472616e736665722063616c6c6572206973206e6f74206f60008201527f776e6572206e6f7220617070726f766564000000000000000000000000000000602082015250565b6000612944603183611e00565b915061294f826128e8565b604082019050919050565b6000602082019050818103600083015261297381612937565b9050919050565b7f4552433732313a206f776e657220717565727920666f72206e6f6e657869737460008201527f656e7420746f6b656e0000000000000000000000000000000000000000000000602082015250565b60006129d6602983611e00565b91506129e18261297a565b604082019050919050565b60006020820190508181036000830152612a05816129c9565b9050919050565b7f4552433732313a2062616c616e636520717565727920666f7220746865207a6560008201527f726f206164647265737300000000000000000000000000000000000000000000602082015250565b6000612a68602a83611e00565b9150612a7382612a0c565b604082019050919050565b60006020820190508181036000830152612a9781612a5b565b9050919050565b7f4e487b7100000000000000000000000000000000000000000000000000000000600052601160045260246000fd5b6000612ad882611eb0565b9150612ae383611eb0565b9250817fffffffffffffffffffffffffffffffffffffffffffffffffffffffffffffffff0483118215151615612b1c57612b1b612a9e565b5b828202905092915050565b7f4e487b7100000000000000000000000000000000000000000000000000000000600052603260045260246000fd5b7f4552433732313a206f70657261746f7220717565727920666f72206e6f6e657860008201527f697374656e7420746f6b656e0000000000000000000000000000000000000000602082015250565b6000612bb2602c83611e00565b9150612bbd82612b56565b604082019050919050565b60006020820190508181036000830152612be181612ba5565b9050919050565b7f4552433732313a207472616e736665722066726f6d20696e636f72726563742060008201527f6f776e6572000000000000000000000000000000000000000000000000000000602082015250565b6000612c44602583611e00565b9150612c4f82612be8565b604082019050919050565b60006020820190508181036000830152612c7381612c37565b9050919050565b7f4552433732313a207472616e7366657220746f20746865207a65726f2061646460008201527f7265737300000000000000000000000000000000000000000000000000000000602082015250565b6000612cd6602483611e00565b9150612ce182612c7a565b604082019050919050565b60006020820190508181036000830152612d0581612cc9565b9050919050565b6000612d1782611eb0565b9150612d2283611eb0565b925082821015612d3557612d34612a9e565b5b828203905092915050565b6000612d4b82611eb0565b9150612d5683611eb0565b9250827fffffffffffffffffffffffffffffffffffffffffffffffffffffffffffffffff03821115612d8b57612d8a612a9e565b5b828201905092915050565b7f4552433732313a20617070726f766520746f2063616c6c657200000000000000600082015250565b6000612dcc601983611e00565b9150612dd782612d96565b602082019050919050565b60006020820190508181036000830152612dfb81612dbf565b9050919050565b7f4552433732313a207472616e7366657220746f206e6f6e20455243373231526560008201527f63656976657220696d706c656d656e7465720000000000000000000000000000602082015250565b6000612e5e603283611e00565b9150612e6982612e02565b604082019050919050565b60006020820190508181036000830152612e8d81612e51565b9050919050565b7f4552433732313a206d696e7420746f20746865207a65726f2061646472657373600082015250565b6000612eca602083611e00565b9150612ed582612e94565b602082019050919050565b60006020820190508181036000830152612ef981612ebd565b9050919050565b7f4552433732313a20746f6b656e20616c7265616479206d696e74656400000000600082015250565b6000612f36601c83611e00565b9150612f4182612f00565b602082019050919050565b60006020820190508181036000830152612f6581612f29565b9050919050565b600081519050919050565b600082825260208201905092915050565b6000612f9382612f6c565b612f9d8185612f77565b9350612fad818560208601611e11565b612fb681611e44565b840191505092915050565b6000608082019050612fd66000830187611f45565b612fe36020830186611f45565b612ff060408301856121ae565b81810360608301526130028184612f88565b905095945050505050565b60008151905061301c81611d66565b92915050565b60006020828403121561303857613037611d30565b5b60006130468482850161300d565b9150509291505056fea26469706673582212205c0c2bad905fadcdab72a91e781b315bf7b925cd45928558fdc15b5fb87f063a64736f6c634300080c0033",
  "immutableReferences": {},
  "source": "// SPDX-License-Identifier: MIT\npragma solidity ^0.8.12;\n\nimport \"@openzeppelin/contracts/token/ERC721/ERC721.sol\";\n\ncontract PerlToken is ERC721 {\n    struct Token {\n        string url;\n        address owner;\n    }\n\n    struct Offer {\n        address sender;\n        uint256 id;\n        uint256 price;\n        bool is_sold;\n    }\n\n    Offer[] private _offers;\n    Token[] private _tokens;\n\n    constructor() ERC721(\"PerlToken\", \"PRL\") {}\n\n    function mint(string memory url) public {\n        _mint(msg.sender, _tokens.length);\n        _tokens.push(Token(url, msg.sender));\n    }\n\n    function buy(uint256 tokenId) public payable {\n        require(msg.value >= _offers[tokenId].price);\n        require(msg.sender != _offers[tokenId].sender);\n\n        payable(_offers[tokenId].sender).transfer(msg.value);\n        _transfer(_offers[tokenId].sender, msg.sender, tokenId);\n\n        _tokens[tokenId].owner = msg.sender;\n        _offers[tokenId].is_sold = true;\n    }\n\n    function offer(uint256 tokenId, uint256 price) public {\n        require(_exists(tokenId));\n        require(balanceOf(msg.sender) > 0);\n        require(ownerOf(tokenId) == msg.sender);\n\n        _offers.push(Offer(msg.sender, tokenId, price * 10**18, false));\n    }\n\n    function tokenURI(uint256 tokenId)\n        public\n        view\n        override\n        returns (string memory)\n    {\n        require(_exists(tokenId));\n        return _tokens[tokenId].url;\n    }\n\n    function offers() public returns (Offer[] memory) {\n        return _offers;\n    }\n\n    function tokens() public returns (Token[] memory) {\n        return _tokens;\n    }\n}\n",
  "sourcePath": "/home/david//Projects/Test/solidity/contracts/PerlToken.sol",
  "compiler": {
    "name": "solc",
    "version": "0.8.12+commit.f00d7308.Emscripten.clang"
  },
  "schemaVersion": "3.4.6",
  "updatedAt": "2022-03-18T12:49:35.819Z",
  "networkType": "ethereum",
  "devdoc": {
    "kind": "dev",
    "methods": {
      "approve(address,uint256)": {
        "details": "See {IERC721-approve}."
      },
      "balanceOf(address)": {
        "details": "See {IERC721-balanceOf}."
      },
      "getApproved(uint256)": {
        "details": "See {IERC721-getApproved}."
      },
      "isApprovedForAll(address,address)": {
        "details": "See {IERC721-isApprovedForAll}."
      },
      "name()": {
        "details": "See {IERC721Metadata-name}."
      },
      "ownerOf(uint256)": {
        "details": "See {IERC721-ownerOf}."
      },
      "safeTransferFrom(address,address,uint256)": {
        "details": "See {IERC721-safeTransferFrom}."
      },
      "safeTransferFrom(address,address,uint256,bytes)": {
        "details": "See {IERC721-safeTransferFrom}."
      },
      "setApprovalForAll(address,bool)": {
        "details": "See {IERC721-setApprovalForAll}."
      },
      "supportsInterface(bytes4)": {
        "details": "See {IERC165-supportsInterface}."
      },
      "symbol()": {
        "details": "See {IERC721Metadata-symbol}."
      },
      "tokenURI(uint256)": {
        "details": "See {IERC721Metadata-tokenURI}."
      },
      "transferFrom(address,address,uint256)": {
        "details": "See {IERC721-transferFrom}."
      }
    },
    "version": 1
  },
  "userdoc": {
    "kind": "user",
    "methods": {},
    "version": 1
  }
}